{
    "contractName": "Recovery",
    "abi": [
        {
            "inputs": [
                {
                    "internalType": "address",
                    "name": "_parentContract",
                    "type": "address"
                },
                {
                    "internalType": "address",
                    "name": "_owner",
                    "type": "address"
                },
                {
                    "internalType": "uint8",
                    "name": "_recoveryThreshold",
                    "type": "uint8"
                }
            ],
            "stateMutability": "nonpayable",
            "type": "constructor"
        },
        {
            "anonymous": false,
            "inputs": [
                {
                    "indexed": true,
                    "internalType": "address",
                    "name": "previousOwner",
                    "type": "address"
                },
                {
                    "indexed": true,
                    "internalType": "address",
                    "name": "newOwner",
                    "type": "address"
                }
            ],
            "name": "OwnershipTransferred",
            "type": "event"
        },
        {
            "anonymous": false,
            "inputs": [
                {
                    "indexed": true,
                    "internalType": "address",
                    "name": "account",
                    "type": "address"
                },
                {
                    "indexed": false,
                    "internalType": "address",
                    "name": "owner",
                    "type": "address"
                },
                {
                    "indexed": false,
                    "internalType": "uint256",
                    "name": "previousChange",
                    "type": "uint256"
                }
            ],
            "name": "TrusteeAdded",
            "type": "event"
        },
        {
            "anonymous": false,
            "inputs": [
                {
                    "indexed": true,
                    "internalType": "address",
                    "name": "account",
                    "type": "address"
                },
                {
                    "indexed": false,
                    "internalType": "address",
                    "name": "owner",
                    "type": "address"
                },
                {
                    "indexed": false,
                    "internalType": "uint256",
                    "name": "previousChange",
                    "type": "uint256"
                },
                {
                    "indexed": false,
                    "internalType": "uint256",
                    "name": "currentBlock",
                    "type": "uint256"
                }
            ],
            "name": "TrusteeVerified",
            "type": "event"
        },
        {
            "inputs": [
                {
                    "internalType": "address",
                    "name": "",
                    "type": "address"
                }
            ],
            "name": "blacklisted",
            "outputs": [
                {
                    "internalType": "bool",
                    "name": "",
                    "type": "bool"
                }
            ],
            "stateMutability": "view",
            "type": "function"
        },
        {
            "inputs": [
                {
                    "internalType": "address",
                    "name": "",
                    "type": "address"
                }
            ],
            "name": "confirmed",
            "outputs": [
                {
                    "internalType": "bool",
                    "name": "",
                    "type": "bool"
                }
            ],
            "stateMutability": "view",
            "type": "function"
        },
        {
            "inputs": [
                {
                    "internalType": "address",
                    "name": "",
                    "type": "address"
                }
            ],
            "name": "confirmedBlockNo",
            "outputs": [
                {
                    "internalType": "uint256",
                    "name": "",
                    "type": "uint256"
                }
            ],
            "stateMutability": "view",
            "type": "function"
        },
        {
            "inputs": [],
            "name": "currentChange",
            "outputs": [
                {
                    "internalType": "uint256",
                    "name": "",
                    "type": "uint256"
                }
            ],
            "stateMutability": "view",
            "type": "function"
        },
        {
            "inputs": [],
            "name": "owner",
            "outputs": [
                {
                    "internalType": "address",
                    "name": "",
                    "type": "address"
                }
            ],
            "stateMutability": "view",
            "type": "function"
        },
        {
            "inputs": [],
            "name": "renounceOwnership",
            "outputs": [],
            "stateMutability": "nonpayable",
            "type": "function"
        },
        {
            "inputs": [
                {
                    "internalType": "address",
                    "name": "",
                    "type": "address"
                }
            ],
            "name": "shardHolders",
            "outputs": [
                {
                    "internalType": "bool",
                    "name": "",
                    "type": "bool"
                }
            ],
            "stateMutability": "view",
            "type": "function"
        },
        {
            "inputs": [
                {
                    "internalType": "address",
                    "name": "newOwner",
                    "type": "address"
                }
            ],
            "name": "transferOwnership",
            "outputs": [],
            "stateMutability": "nonpayable",
            "type": "function"
        },
        {
            "inputs": [
                {
                    "internalType": "uint256",
                    "name": "",
                    "type": "uint256"
                }
            ],
            "name": "trustees",
            "outputs": [
                {
                    "internalType": "address",
                    "name": "",
                    "type": "address"
                }
            ],
            "stateMutability": "view",
            "type": "function"
        },
        {
            "inputs": [],
            "name": "getNFTAddress",
            "outputs": [
                {
                    "internalType": "address",
                    "name": "",
                    "type": "address"
                }
            ],
            "stateMutability": "view",
            "type": "function"
        },
        {
            "inputs": [],
            "name": "getTrustees",
            "outputs": [
                {
                    "internalType": "address[]",
                    "name": "",
                    "type": "address[]"
                }
            ],
            "stateMutability": "view",
            "type": "function"
        },
        {
            "inputs": [],
            "name": "viewWhoTriggeredRecovery",
            "outputs": [
                {
                    "internalType": "address",
                    "name": "",
                    "type": "address"
                }
            ],
            "stateMutability": "view",
            "type": "function"
        },
        {
            "inputs": [
                {
                    "internalType": "address[]",
                    "name": "_toAdd",
                    "type": "address[]"
                }
            ],
            "name": "batchAddShardholder",
            "outputs": [],
            "stateMutability": "nonpayable",
            "type": "function"
        },
        {
            "inputs": [
                {
                    "internalType": "address[]",
                    "name": "_toBlacklist",
                    "type": "address[]"
                }
            ],
            "name": "batchBlacklistShardholder",
            "outputs": [],
            "stateMutability": "nonpayable",
            "type": "function"
        },
        {
            "inputs": [
                {
                    "internalType": "address[]",
                    "name": "_toBlacklist",
                    "type": "address[]"
                }
            ],
            "name": "batchRemoveBlacklistShardholder",
            "outputs": [],
            "stateMutability": "nonpayable",
            "type": "function"
        },
        {
            "inputs": [],
            "name": "confirmTrustee",
            "outputs": [],
            "stateMutability": "nonpayable",
            "type": "function"
        },
        {
            "inputs": [
                {
                    "internalType": "address",
                    "name": "_shardOwner",
                    "type": "address"
                },
                {
                    "internalType": "string",
                    "name": "_shardURI",
                    "type": "string"
                }
            ],
            "name": "sendShardToShardOwner",
            "outputs": [],
            "stateMutability": "nonpayable",
            "type": "function"
        },
        {
            "inputs": [
                {
                    "internalType": "string",
                    "name": "_payloadURI",
                    "type": "string"
                }
            ],
            "name": "triggerRecoveryEvent",
            "outputs": [],
            "stateMutability": "nonpayable",
            "type": "function"
        },
        {
            "inputs": [
                {
                    "internalType": "string",
                    "name": "_payloadURI",
                    "type": "string"
                }
            ],
            "name": "sendShardToRecoveryInitialiser",
            "outputs": [],
            "stateMutability": "nonpayable",
            "type": "function"
        },
        {
            "inputs": [],
            "name": "destroyShardContract",
            "outputs": [],
            "stateMutability": "nonpayable",
            "type": "function"
        },
        {
            "inputs": [
                {
                    "internalType": "address",
                    "name": "_newOwner",
                    "type": "address"
                },
                {
                    "internalType": "address",
                    "name": "_currentOwner",
                    "type": "address"
                }
            ],
            "name": "transferRecoveryOwnership",
            "outputs": [],
            "stateMutability": "nonpayable",
            "type": "function"
        }
    ],
    "bytecode": "0x60806040526000600760006101000a81548160ff021916908360ff1602179055503480156200002d57600080fd5b506040516200565638038062005656833981810160405260608110156200005357600080fd5b8101908080519060200190929190805190602001909291908051906020019092919050505060006200008a6200020a60201b60201c565b9050806000806101000a81548173ffffffffffffffffffffffffffffffffffffffff021916908373ffffffffffffffffffffffffffffffffffffffff1602179055508073ffffffffffffffffffffffffffffffffffffffff16600073ffffffffffffffffffffffffffffffffffffffff167f8be0079c531659141344cd1fd0a4f28419497f9722a3daafe3b4186f6b6457e060405160405180910390a35082600860006101000a81548173ffffffffffffffffffffffffffffffffffffffff021916908373ffffffffffffffffffffffffffffffffffffffff160217905550604051620001779062000440565b604051809103906000f08015801562000194573d6000803e3d6000fd5b50600960006101000a81548173ffffffffffffffffffffffffffffffffffffffff021916908373ffffffffffffffffffffffffffffffffffffffff160217905550620001e6826200021260201b60201c565b80600760006101000a81548160ff021916908360ff1602179055505050506200044e565b600033905090565b620002226200020a60201b60201c565b73ffffffffffffffffffffffffffffffffffffffff16620002486200041760201b60201c565b73ffffffffffffffffffffffffffffffffffffffff1614620002d2576040517f08c379a00000000000000000000000000000000000000000000000000000000081526004018080602001828103825260208152602001807f4f776e61626c653a2063616c6c6572206973206e6f7420746865206f776e657281525060200191505060405180910390fd5b600073ffffffffffffffffffffffffffffffffffffffff168173ffffffffffffffffffffffffffffffffffffffff1614156200035a576040517f08c379a0000000000000000000000000000000000000000000000000000000008152600401808060200182810382526026815260200180620056306026913960400191505060405180910390fd5b8073ffffffffffffffffffffffffffffffffffffffff1660008054906101000a900473ffffffffffffffffffffffffffffffffffffffff1673ffffffffffffffffffffffffffffffffffffffff167f8be0079c531659141344cd1fd0a4f28419497f9722a3daafe3b4186f6b6457e060405160405180910390a3806000806101000a81548173ffffffffffffffffffffffffffffffffffffffff021916908373ffffffffffffffffffffffffffffffffffffffff16021790555050565b60008060009054906101000a900473ffffffffffffffffffffffffffffffffffffffff16905090565b612ef8806200273883390190565b6122da806200045e6000396000f3fe608060405234801561001057600080fd5b50600436106101375760003560e01c80638da5cb5b116100b8578063beffaf091161007c578063beffaf091461070b578063c6ea00671461076a578063dbac26e914610774578063dd70b55c146107ce578063f2fde38b146107d8578063f5cd36431461081c57610137565b80638da5cb5b146105345780638eb4285a146105685780639bcfb6f9146105c2578063a9d997951461067d578063b9618478146106d757610137565b80636fa0245d116100ff5780636fa0245d14610360578063715018a61461043b578063717d63a414610445578063798c20ea1461049d57806383f3138b1461051657610137565b806321668dd41461013c578063238a6acb146101f75780633ccfbde31461024f5780635df6849d146102c857806364cc629b1461032c575b600080fd5b6101f56004803603602081101561015257600080fd5b810190808035906020019064010000000081111561016f57600080fd5b82018360208201111561018157600080fd5b803590602001918460018302840111640100000000831117156101a357600080fd5b91908080601f016020809104026020016040519081016040528093929190818152602001838380828437600081840152601f19601f820116905080830192505050505050509192919290505050610895565b005b6102396004803603602081101561020d57600080fd5b81019080803573ffffffffffffffffffffffffffffffffffffffff169060200190929190505050610c9a565b6040518082815260200191505060405180910390f35b6102c66004803603602081101561026557600080fd5b810190808035906020019064010000000081111561028257600080fd5b82018360208201111561029457600080fd5b803590602001918460208302840111640100000000831117156102b657600080fd5b9091929391929390505050610cb2565b005b61032a600480360360408110156102de57600080fd5b81019080803573ffffffffffffffffffffffffffffffffffffffff169060200190929190803573ffffffffffffffffffffffffffffffffffffffff169060200190929190505050610e07565b005b610334611019565b604051808273ffffffffffffffffffffffffffffffffffffffff16815260200191505060405180910390f35b6104396004803603604081101561037657600080fd5b81019080803573ffffffffffffffffffffffffffffffffffffffff169060200190929190803590602001906401000000008111156103b357600080fd5b8201836020820111156103c557600080fd5b803590602001918460018302840111640100000000831117156103e757600080fd5b91908080601f016020809104026020016040519081016040528093929190818152602001838380828437600081840152601f19601f820116905080830192505050505050509192919290505050611043565b005b6104436112e9565b005b6104716004803603602081101561045b57600080fd5b8101908080359060200190929190505050611456565b604051808273ffffffffffffffffffffffffffffffffffffffff16815260200191505060405180910390f35b610514600480360360208110156104b357600080fd5b81019080803590602001906401000000008111156104d057600080fd5b8201836020820111156104e257600080fd5b8035906020019184602083028401116401000000008311171561050457600080fd5b9091929391929390505050611495565b005b61051e6116fb565b6040518082815260200191505060405180910390f35b61053c611701565b604051808273ffffffffffffffffffffffffffffffffffffffff16815260200191505060405180910390f35b6105aa6004803603602081101561057e57600080fd5b81019080803573ffffffffffffffffffffffffffffffffffffffff16906020019092919050505061172a565b60405180821515815260200191505060405180910390f35b61067b600480360360208110156105d857600080fd5b81019080803590602001906401000000008111156105f557600080fd5b82018360208201111561060757600080fd5b8035906020019184600183028401116401000000008311171561062957600080fd5b91908080601f016020809104026020016040519081016040528093929190818152602001838380828437600081840152601f19601f82011690508083019250505050505050919291929050505061174a565b005b6106bf6004803603602081101561069357600080fd5b81019080803573ffffffffffffffffffffffffffffffffffffffff169060200190929190505050611a7d565b60405180821515815260200191505060405180910390f35b6106df611a9d565b604051808273ffffffffffffffffffffffffffffffffffffffff16815260200191505060405180910390f35b610713611b76565b6040518080602001828103825283818151815260200191508051906020019060200280838360005b8381101561075657808201518184015260208101905061073b565b505050509050019250505060405180910390f35b610772611c04565b005b6107b66004803603602081101561078a57600080fd5b81019080803573ffffffffffffffffffffffffffffffffffffffff169060200190929190505050611cb5565b60405180821515815260200191505060405180910390f35b6107d6611cd5565b005b61081a600480360360208110156107ee57600080fd5b81019080803573ffffffffffffffffffffffffffffffffffffffff169060200190929190505050611f2f565b005b6108936004803603602081101561083257600080fd5b810190808035906020019064010000000081111561084f57600080fd5b82018360208201111561086157600080fd5b8035906020019184602083028401116401000000008311171561088357600080fd5b9091929391929390505050612121565b005b600160003373ffffffffffffffffffffffffffffffffffffffff1673ffffffffffffffffffffffffffffffffffffffff16815260200190815260200160002060009054906101000a900460ff1680156109385750600260003373ffffffffffffffffffffffffffffffffffffffff1673ffffffffffffffffffffffffffffffffffffffff16815260200190815260200160002060009054906101000a900460ff16155b6109aa576040517f08c379a00000000000000000000000000000000000000000000000000000000081526004018080602001828103825260138152602001807f4e6f7420612076616c696420547275737465650000000000000000000000000081525060200191505060405180910390fd5b33600760026101000a81548173ffffffffffffffffffffffffffffffffffffffff021916908373ffffffffffffffffffffffffffffffffffffffff16021790555060005b6006805490508160ff161015610c96576001600060068360ff1681548110610a1257fe5b9060005260206000200160009054906101000a900473ffffffffffffffffffffffffffffffffffffffff1673ffffffffffffffffffffffffffffffffffffffff1673ffffffffffffffffffffffffffffffffffffffff16815260200190815260200160002060009054906101000a900460ff168015610b1557506002600060068360ff1681548110610aa057fe5b9060005260206000200160009054906101000a900473ffffffffffffffffffffffffffffffffffffffff1673ffffffffffffffffffffffffffffffffffffffff1673ffffffffffffffffffffffffffffffffffffffff16815260200190815260200160002060009054906101000a900460ff16155b15610c8957600960009054906101000a900473ffffffffffffffffffffffffffffffffffffffff1673ffffffffffffffffffffffffffffffffffffffff1663542792b660068360ff1681548110610b6857fe5b9060005260206000200160009054906101000a900473ffffffffffffffffffffffffffffffffffffffff16846040518363ffffffff1660e01b8152600401808373ffffffffffffffffffffffffffffffffffffffff16815260200180602001828103825283818151815260200191508051906020019080838360005b83811015610bff578082015181840152602081019050610be4565b50505050905090810190601f168015610c2c5780820380516001836020036101000a031916815260200191505b509350505050602060405180830381600087803b158015610c4c57600080fd5b505af1158015610c60573d6000803e3d6000fd5b505050506040513d6020811015610c7657600080fd5b8101908080519060200190929190505050505b80806001019150506109ee565b5050565b60046020528060005260406000206000915090505481565b610cba612276565b73ffffffffffffffffffffffffffffffffffffffff16610cd8611701565b73ffffffffffffffffffffffffffffffffffffffff1614610d61576040517f08c379a00000000000000000000000000000000000000000000000000000000081526004018080602001828103825260208152602001807f4f776e61626c653a2063616c6c6572206973206e6f7420746865206f776e657281525060200191505060405180910390fd5b60005b828290508160ff161015610e025760006002600085858560ff16818110610d8757fe5b9050602002013573ffffffffffffffffffffffffffffffffffffffff1673ffffffffffffffffffffffffffffffffffffffff1673ffffffffffffffffffffffffffffffffffffffff16815260200190815260200160002060006101000a81548160ff0219169083151502179055508080600101915050610d64565b505050565b610e0f612276565b73ffffffffffffffffffffffffffffffffffffffff16610e2d611701565b73ffffffffffffffffffffffffffffffffffffffff1614610eb6576040517f08c379a00000000000000000000000000000000000000000000000000000000081526004018080602001828103825260208152602001807f4f776e61626c653a2063616c6c6572206973206e6f7420746865206f776e657281525060200191505060405180910390fd5b600860009054906101000a900473ffffffffffffffffffffffffffffffffffffffff1673ffffffffffffffffffffffffffffffffffffffff1663317c51b1833073ffffffffffffffffffffffffffffffffffffffff16638da5cb5b6040518163ffffffff1660e01b815260040160206040518083038186803b158015610f3b57600080fd5b505afa158015610f4f573d6000803e3d6000fd5b505050506040513d6020811015610f6557600080fd5b8101908080519060200190929190505050306040518463ffffffff1660e01b8152600401808473ffffffffffffffffffffffffffffffffffffffff1681526020018373ffffffffffffffffffffffffffffffffffffffff1681526020018273ffffffffffffffffffffffffffffffffffffffff1681526020019350505050600060405180830381600087803b158015610ffd57600080fd5b505af1158015611011573d6000803e3d6000fd5b505050505050565b6000600760029054906101000a900473ffffffffffffffffffffffffffffffffffffffff16905090565b61104b612276565b73ffffffffffffffffffffffffffffffffffffffff16611069611701565b73ffffffffffffffffffffffffffffffffffffffff16146110f2576040517f08c379a00000000000000000000000000000000000000000000000000000000081526004018080602001828103825260208152602001807f4f776e61626c653a2063616c6c6572206973206e6f7420746865206f776e657281525060200191505060405180910390fd5b600160008373ffffffffffffffffffffffffffffffffffffffff1673ffffffffffffffffffffffffffffffffffffffff16815260200190815260200160002060009054906101000a900460ff166111b1576040517f08c379a00000000000000000000000000000000000000000000000000000000081526004018080602001828103825260138152602001807f4e6f7420612076616c696420547275737465650000000000000000000000000081525060200191505060405180910390fd5b600960009054906101000a900473ffffffffffffffffffffffffffffffffffffffff1673ffffffffffffffffffffffffffffffffffffffff1663542792b683836040518363ffffffff1660e01b8152600401808373ffffffffffffffffffffffffffffffffffffffff16815260200180602001828103825283818151815260200191508051906020019080838360005b8381101561125c578082015181840152602081019050611241565b50505050905090810190601f1680156112895780820380516001836020036101000a031916815260200191505b509350505050602060405180830381600087803b1580156112a957600080fd5b505af11580156112bd573d6000803e3d6000fd5b505050506040513d60208110156112d357600080fd5b8101908080519060200190929190505050505050565b6112f1612276565b73ffffffffffffffffffffffffffffffffffffffff1661130f611701565b73ffffffffffffffffffffffffffffffffffffffff1614611398576040517f08c379a00000000000000000000000000000000000000000000000000000000081526004018080602001828103825260208152602001807f4f776e61626c653a2063616c6c6572206973206e6f7420746865206f776e657281525060200191505060405180910390fd5b600073ffffffffffffffffffffffffffffffffffffffff1660008054906101000a900473ffffffffffffffffffffffffffffffffffffffff1673ffffffffffffffffffffffffffffffffffffffff167f8be0079c531659141344cd1fd0a4f28419497f9722a3daafe3b4186f6b6457e060405160405180910390a360008060006101000a81548173ffffffffffffffffffffffffffffffffffffffff021916908373ffffffffffffffffffffffffffffffffffffffff160217905550565b6006818154811061146657600080fd5b906000526020600020016000915054906101000a900473ffffffffffffffffffffffffffffffffffffffff1681565b61149d612276565b73ffffffffffffffffffffffffffffffffffffffff166114bb611701565b73ffffffffffffffffffffffffffffffffffffffff1614611544576040517f08c379a00000000000000000000000000000000000000000000000000000000081526004018080602001828103825260208152602001807f4f776e61626c653a2063616c6c6572206973206e6f7420746865206f776e657281525060200191505060405180910390fd5b60005b828290508160ff1610156116f657600115156001600085858560ff1681811061156c57fe5b9050602002013573ffffffffffffffffffffffffffffffffffffffff1673ffffffffffffffffffffffffffffffffffffffff1673ffffffffffffffffffffffffffffffffffffffff16815260200190815260200160002060009054906101000a900460ff161515146116e957600180600085858560ff168181106115ec57fe5b9050602002013573ffffffffffffffffffffffffffffffffffffffff1673ffffffffffffffffffffffffffffffffffffffff1673ffffffffffffffffffffffffffffffffffffffff16815260200190815260200160002060006101000a81548160ff021916908315150217905550600683838360ff1681811061166b57fe5b9050602002013573ffffffffffffffffffffffffffffffffffffffff169080600181540180825580915050600190039060005260206000200160009091909190916101000a81548173ffffffffffffffffffffffffffffffffffffffff021916908373ffffffffffffffffffffffffffffffffffffffff1602179055505b8080600101915050611547565b505050565b60055481565b60008060009054906101000a900473ffffffffffffffffffffffffffffffffffffffff16905090565b60016020528060005260406000206000915054906101000a900460ff1681565b600073ffffffffffffffffffffffffffffffffffffffff16600760029054906101000a900473ffffffffffffffffffffffffffffffffffffffff1673ffffffffffffffffffffffffffffffffffffffff16141561180f576040517f08c379a000000000000000000000000000000000000000000000000000000000815260040180806020018281038252601c8152602001807f5265636f76657279206e6f742079657420696e697469616c697365640000000081525060200191505060405180910390fd5b600160003373ffffffffffffffffffffffffffffffffffffffff1673ffffffffffffffffffffffffffffffffffffffff16815260200190815260200160002060009054906101000a900460ff1680156118b25750600260003373ffffffffffffffffffffffffffffffffffffffff1673ffffffffffffffffffffffffffffffffffffffff16815260200190815260200160002060009054906101000a900460ff16155b611924576040517f08c379a00000000000000000000000000000000000000000000000000000000081526004018080602001828103825260138152602001807f4e6f7420612076616c696420547275737465650000000000000000000000000081525060200191505060405180910390fd5b600960009054906101000a900473ffffffffffffffffffffffffffffffffffffffff1673ffffffffffffffffffffffffffffffffffffffff1663542792b6600760029054906101000a900473ffffffffffffffffffffffffffffffffffffffff16836040518363ffffffff1660e01b8152600401808373ffffffffffffffffffffffffffffffffffffffff16815260200180602001828103825283818151815260200191508051906020019080838360005b838110156119f15780820151818401526020810190506119d6565b50505050905090810190601f168015611a1e5780820380516001836020036101000a031916815260200191505b509350505050602060405180830381600087803b158015611a3e57600080fd5b505af1158015611a52573d6000803e3d6000fd5b505050506040513d6020811015611a6857600080fd5b81019080805190602001909291905050505050565b60036020528060005260406000206000915054906101000a900460ff1681565b6000611aa7612276565b73ffffffffffffffffffffffffffffffffffffffff16611ac5611701565b73ffffffffffffffffffffffffffffffffffffffff1614611b4e576040517f08c379a00000000000000000000000000000000000000000000000000000000081526004018080602001828103825260208152602001807f4f776e61626c653a2063616c6c6572206973206e6f7420746865206f776e657281525060200191505060405180910390fd5b600960009054906101000a900473ffffffffffffffffffffffffffffffffffffffff16905090565b60606006805480602002602001604051908101604052809291908181526020018280548015611bfa57602002820191906000526020600020905b8160009054906101000a900473ffffffffffffffffffffffffffffffffffffffff1673ffffffffffffffffffffffffffffffffffffffff1681526020019060010190808311611bb0575b5050505050905090565b611c0c612276565b73ffffffffffffffffffffffffffffffffffffffff16611c2a611701565b73ffffffffffffffffffffffffffffffffffffffff1614611cb3576040517f08c379a00000000000000000000000000000000000000000000000000000000081526004018080602001828103825260208152602001807f4f776e61626c653a2063616c6c6572206973206e6f7420746865206f776e657281525060200191505060405180910390fd5b565b60026020528060005260406000206000915054906101000a900460ff1681565b600160003373ffffffffffffffffffffffffffffffffffffffff1673ffffffffffffffffffffffffffffffffffffffff16815260200190815260200160002060009054906101000a900460ff16611d94576040517f08c379a00000000000000000000000000000000000000000000000000000000081526004018080602001828103825260178152602001807f53656e646572206973206e6f742061207472757374656500000000000000000081525060200191505060405180910390fd5b6001600360003373ffffffffffffffffffffffffffffffffffffffff1673ffffffffffffffffffffffffffffffffffffffff16815260200190815260200160002060006101000a81548160ff02191690831515021790555043600460003373ffffffffffffffffffffffffffffffffffffffff1673ffffffffffffffffffffffffffffffffffffffff168152602001908152602001600020819055503373ffffffffffffffffffffffffffffffffffffffff167f19a67108cdc6ba4d7a3b8dbbb34ff36b3def77fcf222e93968c6e60e41565a313073ffffffffffffffffffffffffffffffffffffffff16638da5cb5b6040518163ffffffff1660e01b815260040160206040518083038186803b158015611eae57600080fd5b505afa158015611ec2573d6000803e3d6000fd5b505050506040513d6020811015611ed857600080fd5b810190808051906020019092919050505060055443604051808473ffffffffffffffffffffffffffffffffffffffff168152602001838152602001828152602001935050505060405180910390a243600581905550565b611f37612276565b73ffffffffffffffffffffffffffffffffffffffff16611f55611701565b73ffffffffffffffffffffffffffffffffffffffff1614611fde576040517f08c379a00000000000000000000000000000000000000000000000000000000081526004018080602001828103825260208152602001807f4f776e61626c653a2063616c6c6572206973206e6f7420746865206f776e657281525060200191505060405180910390fd5b600073ffffffffffffffffffffffffffffffffffffffff168173ffffffffffffffffffffffffffffffffffffffff161415612064576040517f08c379a000000000000000000000000000000000000000000000000000000000815260040180806020018281038252602681526020018061227f6026913960400191505060405180910390fd5b8073ffffffffffffffffffffffffffffffffffffffff1660008054906101000a900473ffffffffffffffffffffffffffffffffffffffff1673ffffffffffffffffffffffffffffffffffffffff167f8be0079c531659141344cd1fd0a4f28419497f9722a3daafe3b4186f6b6457e060405160405180910390a3806000806101000a81548173ffffffffffffffffffffffffffffffffffffffff021916908373ffffffffffffffffffffffffffffffffffffffff16021790555050565b612129612276565b73ffffffffffffffffffffffffffffffffffffffff16612147611701565b73ffffffffffffffffffffffffffffffffffffffff16146121d0576040517f08c379a00000000000000000000000000000000000000000000000000000000081526004018080602001828103825260208152602001807f4f776e61626c653a2063616c6c6572206973206e6f7420746865206f776e657281525060200191505060405180910390fd5b60005b828290508160ff1610156122715760016002600085858560ff168181106121f657fe5b9050602002013573ffffffffffffffffffffffffffffffffffffffff1673ffffffffffffffffffffffffffffffffffffffff1673ffffffffffffffffffffffffffffffffffffffff16815260200190815260200160002060006101000a81548160ff02191690831515021790555080806001019150506121d3565b505050565b60003390509056fe4f776e61626c653a206e6577206f776e657220697320746865207a65726f2061646472657373a2646970667358221220246f358f8adbc497ea298910f5bb7ec873342cf322ab168132028517ce9c013664736f6c6343000704003360806040523480156200001157600080fd5b506040518060400160405280600881526020017f5265636f766572790000000000000000000000000000000000000000000000008152506040518060400160405280600481526020017f724e465400000000000000000000000000000000000000000000000000000000815250620000966301ffc9a760e01b6200015960201b60201c565b8160069080519060200190620000ae92919062000262565b508060079080519060200190620000c792919062000262565b50620000e06380ac58cd60e01b6200015960201b60201c565b620000f8635b5e139f60e01b6200015960201b60201c565b6200011063780e9d6360e01b6200015960201b60201c565b505032600b60006101000a81548173ffffffffffffffffffffffffffffffffffffffff021916908373ffffffffffffffffffffffffffffffffffffffff16021790555062000318565b63ffffffff60e01b817bffffffffffffffffffffffffffffffffffffffffffffffffffffffff19161415620001f6576040517f08c379a000000000000000000000000000000000000000000000000000000000815260040180806020018281038252601c8152602001807f4552433136353a20696e76616c696420696e746572666163652069640000000081525060200191505060405180910390fd5b6001600080837bffffffffffffffffffffffffffffffffffffffffffffffffffffffff19167bffffffffffffffffffffffffffffffffffffffffffffffffffffffff1916815260200190815260200160002060006101000a81548160ff02191690831515021790555050565b828054600181600116156101000203166002900490600052602060002090601f0160209004810192826200029a5760008555620002e6565b82601f10620002b557805160ff1916838001178555620002e6565b82800160010185558215620002e6579182015b82811115620002e5578251825591602001919060010190620002c8565b5b509050620002f59190620002f9565b5090565b5b8082111562000314576000816000905550600101620002fa565b5090565b612bd080620003286000396000f3fe608060405234801561001057600080fd5b50600436106101165760003560e01c8063542792b6116100a257806395d89b411161007157806395d89b4114610667578063a22cb465146106ea578063b88d4fde1461073a578063c87b56dd1461083f578063e985e9c5146108e657610116565b8063542792b6146104455780636352211e146105345780636c0360eb1461058c57806370a082311461060f57610116565b806318160ddd116100e957806318160ddd146102a757806323b872dd146102c55780632f745c591461033357806342842e0e146103955780634f6ccce71461040357610116565b806301ffc9a71461011b57806306fdde031461017e578063081812fc14610201578063095ea7b314610259575b600080fd5b6101666004803603602081101561013157600080fd5b8101908080357bffffffffffffffffffffffffffffffffffffffffffffffffffffffff19169060200190929190505050610960565b60405180821515815260200191505060405180910390f35b6101866109c7565b6040518080602001828103825283818151815260200191508051906020019080838360005b838110156101c65780820151818401526020810190506101ab565b50505050905090810190601f1680156101f35780820380516001836020036101000a031916815260200191505b509250505060405180910390f35b61022d6004803603602081101561021757600080fd5b8101908080359060200190929190505050610a69565b604051808273ffffffffffffffffffffffffffffffffffffffff16815260200191505060405180910390f35b6102a56004803603604081101561026f57600080fd5b81019080803573ffffffffffffffffffffffffffffffffffffffff16906020019092919080359060200190929190505050610b04565b005b6102af610c48565b6040518082815260200191505060405180910390f35b610331600480360360608110156102db57600080fd5b81019080803573ffffffffffffffffffffffffffffffffffffffff169060200190929190803573ffffffffffffffffffffffffffffffffffffffff16906020019092919080359060200190929190505050610c59565b005b61037f6004803603604081101561034957600080fd5b81019080803573ffffffffffffffffffffffffffffffffffffffff16906020019092919080359060200190929190505050610ccf565b6040518082815260200191505060405180910390f35b610401600480360360608110156103ab57600080fd5b81019080803573ffffffffffffffffffffffffffffffffffffffff169060200190929190803573ffffffffffffffffffffffffffffffffffffffff16906020019092919080359060200190929190505050610d2a565b005b61042f6004803603602081101561041957600080fd5b8101908080359060200190929190505050610d4a565b6040518082815260200191505060405180910390f35b61051e6004803603604081101561045b57600080fd5b81019080803573ffffffffffffffffffffffffffffffffffffffff1690602001909291908035906020019064010000000081111561049857600080fd5b8201836020820111156104aa57600080fd5b803590602001918460018302840111640100000000831117156104cc57600080fd5b91908080601f016020809104026020016040519081016040528093929190818152602001838380828437600081840152601f19601f820116905080830192505050505050509192919290505050610d6d565b6040518082815260200191505060405180910390f35b6105606004803603602081101561054a57600080fd5b8101908080359060200190929190505050610da5565b604051808273ffffffffffffffffffffffffffffffffffffffff16815260200191505060405180910390f35b610594610ddc565b6040518080602001828103825283818151815260200191508051906020019080838360005b838110156105d45780820151818401526020810190506105b9565b50505050905090810190601f1680156106015780820380516001836020036101000a031916815260200191505b509250505060405180910390f35b6106516004803603602081101561062557600080fd5b81019080803573ffffffffffffffffffffffffffffffffffffffff169060200190929190505050610e7e565b6040518082815260200191505060405180910390f35b61066f610f53565b6040518080602001828103825283818151815260200191508051906020019080838360005b838110156106af578082015181840152602081019050610694565b50505050905090810190601f1680156106dc5780820380516001836020036101000a031916815260200191505b509250505060405180910390f35b6107386004803603604081101561070057600080fd5b81019080803573ffffffffffffffffffffffffffffffffffffffff169060200190929190803515159060200190929190505050610ff5565b005b61083d6004803603608081101561075057600080fd5b81019080803573ffffffffffffffffffffffffffffffffffffffff169060200190929190803573ffffffffffffffffffffffffffffffffffffffff16906020019092919080359060200190929190803590602001906401000000008111156107b757600080fd5b8201836020820111156107c957600080fd5b803590602001918460018302840111640100000000831117156107eb57600080fd5b91908080601f016020809104026020016040519081016040528093929190818152602001838380828437600081840152601f19601f8201169050808301925050505050505091929192905050506111ab565b005b61086b6004803603602081101561085557600080fd5b8101908080359060200190929190505050611223565b6040518080602001828103825283818151815260200191508051906020019080838360005b838110156108ab578082015181840152602081019050610890565b50505050905090810190601f1680156108d85780820380516001836020036101000a031916815260200191505b509250505060405180910390f35b610948600480360360408110156108fc57600080fd5b81019080803573ffffffffffffffffffffffffffffffffffffffff169060200190929190803573ffffffffffffffffffffffffffffffffffffffff1690602001909291905050506114f4565b60405180821515815260200191505060405180910390f35b6000806000837bffffffffffffffffffffffffffffffffffffffffffffffffffffffff19167bffffffffffffffffffffffffffffffffffffffffffffffffffffffff1916815260200190815260200160002060009054906101000a900460ff169050919050565b606060068054600181600116156101000203166002900480601f016020809104026020016040519081016040528092919081815260200182805460018160011615610100020316600290048015610a5f5780601f10610a3457610100808354040283529160200191610a5f565b820191906000526020600020905b815481529060010190602001808311610a4257829003601f168201915b5050505050905090565b6000610a7482611588565b610ac9576040517f08c379a000000000000000000000000000000000000000000000000000000000815260040180806020018281038252602c815260200180612a99602c913960400191505060405180910390fd5b6004600083815260200190815260200160002060009054906101000a900473ffffffffffffffffffffffffffffffffffffffff169050919050565b6000610b0f82610da5565b90508073ffffffffffffffffffffffffffffffffffffffff168373ffffffffffffffffffffffffffffffffffffffff161415610b96576040517f08c379a0000000000000000000000000000000000000000000000000000000008152600401808060200182810382526021815260200180612b496021913960400191505060405180910390fd5b8073ffffffffffffffffffffffffffffffffffffffff16610bb56115a5565b73ffffffffffffffffffffffffffffffffffffffff161480610be45750610be381610bde6115a5565b6114f4565b5b610c39576040517f08c379a00000000000000000000000000000000000000000000000000000000081526004018080602001828103825260388152602001806129ec6038913960400191505060405180910390fd5b610c4383836115ad565b505050565b6000610c546002611666565b905090565b610c6a610c646115a5565b8261167b565b610cbf576040517f08c379a0000000000000000000000000000000000000000000000000000000008152600401808060200182810382526031815260200180612b6a6031913960400191505060405180910390fd5b610cca83838361176f565b505050565b6000610d2282600160008673ffffffffffffffffffffffffffffffffffffffff1673ffffffffffffffffffffffffffffffffffffffff1681526020019081526020016000206119b290919063ffffffff16565b905092915050565b610d45838383604051806020016040528060008152506111ab565b505050565b600080610d618360026119cc90919063ffffffff16565b50905080915050919050565b6000610d79600a6119f8565b6000610d85600a611a0e565b9050610d918482611a1c565b610d9b8184611c10565b8091505092915050565b6000610dd582604051806060016040528060298152602001612a4e602991396002611c9a9092919063ffffffff16565b9050919050565b606060098054600181600116156101000203166002900480601f016020809104026020016040519081016040528092919081815260200182805460018160011615610100020316600290048015610e745780601f10610e4957610100808354040283529160200191610e74565b820191906000526020600020905b815481529060010190602001808311610e5757829003601f168201915b5050505050905090565b60008073ffffffffffffffffffffffffffffffffffffffff168273ffffffffffffffffffffffffffffffffffffffff161415610f05576040517f08c379a000000000000000000000000000000000000000000000000000000000815260040180806020018281038252602a815260200180612a24602a913960400191505060405180910390fd5b610f4c600160008473ffffffffffffffffffffffffffffffffffffffff1673ffffffffffffffffffffffffffffffffffffffff168152602001908152602001600020611cb9565b9050919050565b606060078054600181600116156101000203166002900480601f016020809104026020016040519081016040528092919081815260200182805460018160011615610100020316600290048015610feb5780601f10610fc057610100808354040283529160200191610feb565b820191906000526020600020905b815481529060010190602001808311610fce57829003601f168201915b5050505050905090565b610ffd6115a5565b73ffffffffffffffffffffffffffffffffffffffff168273ffffffffffffffffffffffffffffffffffffffff16141561109e576040517f08c379a00000000000000000000000000000000000000000000000000000000081526004018080602001828103825260198152602001807f4552433732313a20617070726f766520746f2063616c6c65720000000000000081525060200191505060405180910390fd5b80600560006110ab6115a5565b73ffffffffffffffffffffffffffffffffffffffff1673ffffffffffffffffffffffffffffffffffffffff16815260200190815260200160002060008473ffffffffffffffffffffffffffffffffffffffff1673ffffffffffffffffffffffffffffffffffffffff16815260200190815260200160002060006101000a81548160ff0219169083151502179055508173ffffffffffffffffffffffffffffffffffffffff166111586115a5565b73ffffffffffffffffffffffffffffffffffffffff167f17307eab39ab6107e8899845ad3d59bd9653f200f220920489ca2b5937696c318360405180821515815260200191505060405180910390a35050565b6111bc6111b66115a5565b8361167b565b611211576040517f08c379a0000000000000000000000000000000000000000000000000000000008152600401808060200182810382526031815260200180612b6a6031913960400191505060405180910390fd5b61121d84848484611cce565b50505050565b606061122e82611588565b611283576040517f08c379a000000000000000000000000000000000000000000000000000000000815260040180806020018281038252602f815260200180612b1a602f913960400191505060405180910390fd5b6060600860008481526020019081526020016000208054600181600116156101000203166002900480601f01602080910402602001604051908101604052809291908181526020018280546001816001161561010002031660029004801561132c5780601f106113015761010080835404028352916020019161132c565b820191906000526020600020905b81548152906001019060200180831161130f57829003601f168201915b50505050509050606061133d610ddc565b90506000815114156113535781925050506114ef565b6000825111156114245780826040516020018083805190602001908083835b602083106113955780518252602082019150602081019050602083039250611372565b6001836020036101000a03801982511681845116808217855250505050505090500182805190602001908083835b602083106113e657805182526020820191506020810190506020830392506113c3565b6001836020036101000a03801982511681845116808217855250505050505090500192505050604051602081830303815290604052925050506114ef565b8061142e85611d40565b6040516020018083805190602001908083835b602083106114645780518252602082019150602081019050602083039250611441565b6001836020036101000a03801982511681845116808217855250505050505090500182805190602001908083835b602083106114b55780518252602082019150602081019050602083039250611492565b6001836020036101000a03801982511681845116808217855250505050505090500192505050604051602081830303815290604052925050505b919050565b6000600560008473ffffffffffffffffffffffffffffffffffffffff1673ffffffffffffffffffffffffffffffffffffffff16815260200190815260200160002060008373ffffffffffffffffffffffffffffffffffffffff1673ffffffffffffffffffffffffffffffffffffffff16815260200190815260200160002060009054906101000a900460ff16905092915050565b600061159e826002611e8790919063ffffffff16565b9050919050565b600033905090565b816004600083815260200190815260200160002060006101000a81548173ffffffffffffffffffffffffffffffffffffffff021916908373ffffffffffffffffffffffffffffffffffffffff160217905550808273ffffffffffffffffffffffffffffffffffffffff1661162083610da5565b73ffffffffffffffffffffffffffffffffffffffff167f8c5be1e5ebec7d5bd14f71427d1e84f3dd0314c0f7b2291e5b200ac8c7c3b92560405160405180910390a45050565b600061167482600001611ea1565b9050919050565b600061168682611588565b6116db576040517f08c379a000000000000000000000000000000000000000000000000000000000815260040180806020018281038252602c8152602001806129c0602c913960400191505060405180910390fd5b60006116e683610da5565b90508073ffffffffffffffffffffffffffffffffffffffff168473ffffffffffffffffffffffffffffffffffffffff16148061175557508373ffffffffffffffffffffffffffffffffffffffff1661173d84610a69565b73ffffffffffffffffffffffffffffffffffffffff16145b80611766575061176581856114f4565b5b91505092915050565b8273ffffffffffffffffffffffffffffffffffffffff1661178f82610da5565b73ffffffffffffffffffffffffffffffffffffffff16146117fb576040517f08c379a0000000000000000000000000000000000000000000000000000000008152600401808060200182810382526029815260200180612af16029913960400191505060405180910390fd5b600073ffffffffffffffffffffffffffffffffffffffff168273ffffffffffffffffffffffffffffffffffffffff161415611881576040517f08c379a00000000000000000000000000000000000000000000000000000000081526004018080602001828103825260248152602001806129766024913960400191505060405180910390fd5b61188c838383611eb2565b6118976000826115ad565b6118e881600160008673ffffffffffffffffffffffffffffffffffffffff1673ffffffffffffffffffffffffffffffffffffffff168152602001908152602001600020611eb790919063ffffffff16565b5061193a81600160008573ffffffffffffffffffffffffffffffffffffffff1673ffffffffffffffffffffffffffffffffffffffff168152602001908152602001600020611ed190919063ffffffff16565b5061195181836002611eeb9092919063ffffffff16565b50808273ffffffffffffffffffffffffffffffffffffffff168473ffffffffffffffffffffffffffffffffffffffff167fddf252ad1be2c89b69c2b068fc378daa952ba7f163c4a11628f55a4df523b3ef60405160405180910390a4505050565b60006119c18360000183611f20565b60001c905092915050565b6000806000806119df8660000186611fa3565b915091508160001c8160001c9350935050509250929050565b6001816000016000828254019250508190555050565b600081600001549050919050565b600073ffffffffffffffffffffffffffffffffffffffff168273ffffffffffffffffffffffffffffffffffffffff161415611abf576040517f08c379a00000000000000000000000000000000000000000000000000000000081526004018080602001828103825260208152602001807f4552433732313a206d696e7420746f20746865207a65726f206164647265737381525060200191505060405180910390fd5b611ac881611588565b15611b3b576040517f08c379a000000000000000000000000000000000000000000000000000000000815260040180806020018281038252601c8152602001807f4552433732313a20746f6b656e20616c7265616479206d696e7465640000000081525060200191505060405180910390fd5b611b4760008383611eb2565b611b9881600160008573ffffffffffffffffffffffffffffffffffffffff1673ffffffffffffffffffffffffffffffffffffffff168152602001908152602001600020611ed190919063ffffffff16565b50611baf81836002611eeb9092919063ffffffff16565b50808273ffffffffffffffffffffffffffffffffffffffff16600073ffffffffffffffffffffffffffffffffffffffff167fddf252ad1be2c89b69c2b068fc378daa952ba7f163c4a11628f55a4df523b3ef60405160405180910390a45050565b611c1982611588565b611c6e576040517f08c379a000000000000000000000000000000000000000000000000000000000815260040180806020018281038252602c815260200180612ac5602c913960400191505060405180910390fd5b80600860008481526020019081526020016000209080519060200190611c95929190612876565b505050565b6000611cad846000018460001b8461203c565b60001c90509392505050565b6000611cc782600001612132565b9050919050565b611cd984848461176f565b611ce584848484612143565b611d3a576040517f08c379a00000000000000000000000000000000000000000000000000000000081526004018080602001828103825260328152602001806129446032913960400191505060405180910390fd5b50505050565b60606000821415611d88576040518060400160405280600181526020017f30000000000000000000000000000000000000000000000000000000000000008152509050611e82565b600082905060005b60008214611db2578080600101915050600a8281611daa57fe5b049150611d90565b60608167ffffffffffffffff81118015611dcb57600080fd5b506040519080825280601f01601f191660200182016040528015611dfe5781602001600182028036833780820191505090505b50905060006001830390508593505b60008414611e7a57600a8481611e1f57fe5b0660300160f81b82828060019003935081518110611e3957fe5b60200101907effffffffffffffffffffffffffffffffffffffffffffffffffffffffffffff1916908160001a905350600a8481611e7257fe5b049350611e0d565b819450505050505b919050565b6000611e99836000018360001b61235c565b905092915050565b600081600001805490509050919050565b505050565b6000611ec9836000018360001b61237f565b905092915050565b6000611ee3836000018360001b612467565b905092915050565b6000611f17846000018460001b8473ffffffffffffffffffffffffffffffffffffffff1660001b6124d7565b90509392505050565b600081836000018054905011611f81576040517f08c379a00000000000000000000000000000000000000000000000000000000081526004018080602001828103825260228152602001806129226022913960400191505060405180910390fd5b826000018281548110611f9057fe5b9060005260206000200154905092915050565b60008082846000018054905011612005576040517f08c379a0000000000000000000000000000000000000000000000000000000008152600401808060200182810382526022815260200180612a776022913960400191505060405180910390fd5b600084600001848154811061201657fe5b906000526020600020906002020190508060000154816001015492509250509250929050565b60008084600101600085815260200190815260200160002054905060008114158390612103576040517f08c379a00000000000000000000000000000000000000000000000000000000081526004018080602001828103825283818151815260200191508051906020019080838360005b838110156120c85780820151818401526020810190506120ad565b50505050905090810190601f1680156120f55780820380516001836020036101000a031916815260200191505b509250505060405180910390fd5b5084600001600182038154811061211657fe5b9060005260206000209060020201600101549150509392505050565b600081600001805490509050919050565b60006121648473ffffffffffffffffffffffffffffffffffffffff166125b3565b6121715760019050612354565b60606122db63150b7a0260e01b6121866115a5565b888787604051602401808573ffffffffffffffffffffffffffffffffffffffff1681526020018473ffffffffffffffffffffffffffffffffffffffff16815260200183815260200180602001828103825283818151815260200191508051906020019080838360005b8381101561220a5780820151818401526020810190506121ef565b50505050905090810190601f1680156122375780820380516001836020036101000a031916815260200191505b5095505050505050604051602081830303815290604052907bffffffffffffffffffffffffffffffffffffffffffffffffffffffff19166020820180517bffffffffffffffffffffffffffffffffffffffffffffffffffffffff8381831617835250505050604051806060016040528060328152602001612944603291398773ffffffffffffffffffffffffffffffffffffffff166125c69092919063ffffffff16565b905060008180602001905160208110156122f457600080fd5b8101908080519060200190929190505050905063150b7a0260e01b7bffffffffffffffffffffffffffffffffffffffffffffffffffffffff1916817bffffffffffffffffffffffffffffffffffffffffffffffffffffffff191614925050505b949350505050565b600080836001016000848152602001908152602001600020541415905092915050565b6000808360010160008481526020019081526020016000205490506000811461245b57600060018203905060006001866000018054905003905060008660000182815481106123ca57fe5b90600052602060002001549050808760000184815481106123e757fe5b906000526020600020018190555060018301876001016000838152602001908152602001600020819055508660000180548061241f57fe5b60019003818190600052602060002001600090559055866001016000878152602001908152602001600020600090556001945050505050612461565b60009150505b92915050565b600061247383836125de565b6124cc5782600001829080600181540180825580915050600190039060005260206000200160009091909190915055826000018054905083600101600084815260200190815260200160002081905550600190506124d1565b600090505b92915050565b600080846001016000858152602001908152602001600020549050600081141561257e578460000160405180604001604052808681526020018581525090806001815401808255809150506001900390600052602060002090600202016000909190919091506000820151816000015560208201518160010155505084600001805490508560010160008681526020019081526020016000208190555060019150506125ac565b8285600001600183038154811061259157fe5b90600052602060002090600202016001018190555060009150505b9392505050565b600080823b905060008111915050919050565b60606125d58484600085612601565b90509392505050565b600080836001016000848152602001908152602001600020541415905092915050565b60608247101561265c576040517f08c379a000000000000000000000000000000000000000000000000000000000815260040180806020018281038252602681526020018061299a6026913960400191505060405180910390fd5b612665856125b3565b6126d7576040517f08c379a000000000000000000000000000000000000000000000000000000000815260040180806020018281038252601d8152602001807f416464726573733a2063616c6c20746f206e6f6e2d636f6e747261637400000081525060200191505060405180910390fd5b600060608673ffffffffffffffffffffffffffffffffffffffff1685876040518082805190602001908083835b602083106127275780518252602082019150602081019050602083039250612704565b6001836020036101000a03801982511681845116808217855250505050505090500191505060006040518083038185875af1925050503d8060008114612789576040519150601f19603f3d011682016040523d82523d6000602084013e61278e565b606091505b509150915061279e8282866127aa565b92505050949350505050565b606083156127ba5782905061286f565b6000835111156127cd5782518084602001fd5b816040517f08c379a00000000000000000000000000000000000000000000000000000000081526004018080602001828103825283818151815260200191508051906020019080838360005b83811015612834578082015181840152602081019050612819565b50505050905090810190601f1680156128615780820380516001836020036101000a031916815260200191505b509250505060405180910390fd5b9392505050565b828054600181600116156101000203166002900490600052602060002090601f0160209004810192826128ac57600085556128f3565b82601f106128c557805160ff19168380011785556128f3565b828001600101855582156128f3579182015b828111156128f25782518255916020019190600101906128d7565b5b5090506129009190612904565b5090565b5b8082111561291d576000816000905550600101612905565b509056fe456e756d657261626c655365743a20696e646578206f7574206f6620626f756e64734552433732313a207472616e7366657220746f206e6f6e20455243373231526563656976657220696d706c656d656e7465724552433732313a207472616e7366657220746f20746865207a65726f2061646472657373416464726573733a20696e73756666696369656e742062616c616e636520666f722063616c6c4552433732313a206f70657261746f7220717565727920666f72206e6f6e6578697374656e7420746f6b656e4552433732313a20617070726f76652063616c6c6572206973206e6f74206f776e6572206e6f7220617070726f76656420666f7220616c6c4552433732313a2062616c616e636520717565727920666f7220746865207a65726f20616464726573734552433732313a206f776e657220717565727920666f72206e6f6e6578697374656e7420746f6b656e456e756d657261626c654d61703a20696e646578206f7574206f6620626f756e64734552433732313a20617070726f76656420717565727920666f72206e6f6e6578697374656e7420746f6b656e4552433732314d657461646174613a2055524920736574206f66206e6f6e6578697374656e7420746f6b656e4552433732313a207472616e73666572206f6620746f6b656e2074686174206973206e6f74206f776e4552433732314d657461646174613a2055524920717565727920666f72206e6f6e6578697374656e7420746f6b656e4552433732313a20617070726f76616c20746f2063757272656e74206f776e65724552433732313a207472616e736665722063616c6c6572206973206e6f74206f776e6572206e6f7220617070726f766564a26469706673582212208c7f9380f690271cd8449bac1cf0f082bc99d617e0df30e728cea9030a34ba6364736f6c634300070400334f776e61626c653a206e6577206f776e657220697320746865207a65726f2061646472657373",
    "immutableReferences": {},
    "source": "// SPDX-License-Identifier: UNLICENSED\r\npragma solidity ^0.7.4;\r\n\r\nimport \"./IShardManager.sol\";\r\nimport \"./ShardNFT.sol\";\r\nimport \"./IShardNFT.sol\";\r\n\r\nimport \"@openzeppelin/contracts/access/Ownable.sol\";\r\n\r\ncontract Recovery is Ownable {\r\n    enum RecoveryState {Created, Normal, InRecovery, Death}\r\n\r\n    // a user can revoke a particular shard holder from being user by storing by blacklisting them here\r\n    mapping(address => bool) public shardHolders;\r\n    mapping(address => bool) public blacklisted;\r\n    mapping(address => bool) public confirmed; // trustees can send a transaction from their own account to the contract so that they can show up as confirmed\r\n\r\n    mapping(address => uint256) public confirmedBlockNo;\r\n\r\n    // mapping(address => string) publicKeys;\r\n    // mapping(address => bool) pubKeyGathered;\r\n    uint256 public currentChange; //The block number when a public key was verified, so that the transaction can be found\r\n    address[] public trustees;\r\n    uint8 recoveryThreshold = 0;\r\n\r\n    // The current recovery state of the contract\r\n    //TODO: Set recovery state along the chain\r\n    RecoveryState recoveryState;\r\n    // Will be set if a trustee has triggered recovery\r\n    address trusteeTriggeredRecovery;\r\n    IShardManager parentContract;\r\n    ShardNFT nftContract;\r\n\r\n    event TrusteeVerified(\r\n        address indexed account,\r\n        address owner,\r\n        uint256 previousChange,\r\n        uint256 currentBlock\r\n    );\r\n\r\n    event TrusteeAdded(\r\n        address indexed account,\r\n        address owner,\r\n        uint256 previousChange\r\n    );\r\n\r\n    /**\r\n     *\r\n     */\r\n    constructor(\r\n        address _parentContract,\r\n        address _owner,\r\n        uint8 _recoveryThreshold\r\n    ) {\r\n        parentContract = IShardManager(_parentContract);\r\n        nftContract = new ShardNFT();\r\n        transferOwnership(_owner);\r\n        recoveryThreshold = _recoveryThreshold;\r\n    }\r\n\r\n    function getNFTAddress() public view onlyOwner returns (address) {\r\n        return address(nftContract);\r\n    }\r\n\r\n    function getTrustees() external view returns (address[] memory) {\r\n        return trustees;\r\n    }\r\n\r\n    function viewWhoTriggeredRecovery() public view returns (address) {\r\n        return address(trusteeTriggeredRecovery);\r\n    }\r\n\r\n    /*\r\n        Idea that when a user sends a recovery request to this contract it will contact the other shard holders\r\n    */\r\n\r\n    /*\r\n        add Shard holder\r\n        \r\n        The owner of this shard contract can set a shard holder for themselves, this will be a number \r\n        of ethereum addresses that will then be marked and stored.\r\n        Only the owner can perform this operation\r\n    */\r\n    function batchAddShardholder(address[] calldata _toAdd) public onlyOwner {\r\n        // Set the provided addresses to be shard holders\r\n        for (uint8 i = 0; i < _toAdd.length; i++) {\r\n            // check trustee has not been already added\r\n            if (shardHolders[_toAdd[i]] != true) {\r\n                shardHolders[_toAdd[i]] = true;\r\n                trustees.push(_toAdd[i]);\r\n            }\r\n        }\r\n    }\r\n\r\n    function batchBlacklistShardholder(address[] calldata _toBlacklist)\r\n        public\r\n        onlyOwner\r\n    {\r\n        // Set the provided addresses to be shard holders\r\n        for (uint8 i = 0; i < _toBlacklist.length; i++) {\r\n            blacklisted[_toBlacklist[i]] = true;\r\n        }\r\n    }\r\n\r\n    function batchRemoveBlacklistShardholder(address[] calldata _toBlacklist)\r\n        public\r\n        onlyOwner\r\n    {\r\n        for (uint8 i = 0; i < _toBlacklist.length; i++) {\r\n            blacklisted[_toBlacklist[i]] = false;\r\n        }\r\n    }\r\n\r\n    /** Confirm Trustee\r\n     */\r\n    function confirmTrustee() public {\r\n        require(shardHolders[msg.sender], \"Sender is not a trustee\");\r\n        confirmed[msg.sender] = true;\r\n        confirmedBlockNo[msg.sender] = block.number;\r\n        emit TrusteeVerified(\r\n            msg.sender,\r\n            this.owner(),\r\n            currentChange,\r\n            block.number\r\n        );\r\n        currentChange = block.number;\r\n    }\r\n\r\n    function sendShardToShardOwner(address _shardOwner, string memory _shardURI)\r\n        public\r\n        onlyOwner\r\n    {\r\n        // check that the shard holder it is being sent to is registered\r\n        require(shardHolders[_shardOwner], \"Not a valid Trustee\");\r\n        nftContract.distributeShard(_shardOwner, _shardURI);\r\n    }\r\n\r\n    /**\r\n     * Trigger Recovery Event\r\n     *\r\n     * Triggering the recovery event will send a recovery NFT to the addresses of the token holders\r\n     * Any of the shard owners can trigger this event\r\n     */\r\n    function triggerRecoveryEvent(string memory _payloadURI) public {\r\n        require(\r\n            shardHolders[msg.sender] && !blacklisted[msg.sender],\r\n            \"Not a valid Trustee\"\r\n        );\r\n        trusteeTriggeredRecovery = msg.sender;\r\n        // mark the parent contract's state to have been updated\r\n        //TODO: un-comment this line\r\n        // parentContract.updateRecoveryState(\r\n        //     _owner,\r\n        //     address(msg.sender),\r\n        //     uint256(3)\r\n        // );\r\n        // send recovery token to each of the validated shard holders\r\n        for (uint8 j = 0; j < trustees.length; j++) {\r\n            // only send the token if the trustee address has not been blacklisted\r\n            if (shardHolders[trustees[j]] && !blacklisted[trustees[j]]) {\r\n                // Send the shard with the given payload to the list of trustees\r\n                nftContract.distributeShard(trustees[j], _payloadURI);\r\n            }\r\n        }\r\n    }\r\n\r\n    function sendShardToRecoveryInitialiser(string memory _payloadURI) public {\r\n        require(\r\n            trusteeTriggeredRecovery != address(0),\r\n            \"Recovery not yet initialised\"\r\n        );\r\n        require(\r\n            shardHolders[msg.sender] && !blacklisted[msg.sender],\r\n            \"Not a valid Trustee\"\r\n        );\r\n        // send the encoded payload to the user who initialised recovery\r\n        nftContract.distributeShard(trusteeTriggeredRecovery, _payloadURI);\r\n    }\r\n\r\n    /**\r\n     * Destroy Shard contract\r\n     */\r\n    function destroyShardContract() public onlyOwner {}\r\n\r\n    function transferRecoveryOwnership(address _newOwner, address _currentOwner)\r\n        public\r\n        onlyOwner\r\n    {\r\n        parentContract.setNewContractOwner(\r\n            _newOwner,\r\n            this.owner(),\r\n            address(this)\r\n        );\r\n    }\r\n}\r\n",
    "sourcePath": "C:/Users/schee/Documents/Projects/fresh_fyp/contracts/Recovery.sol",
    "compiler": {
        "name": "solc",
        "version": "0.7.4+commit.3f05b770.Emscripten.clang"
    },
    "schemaVersion": "3.3.4",
    "updatedAt": "2021-03-15T12:10:29.712Z",
    "devdoc": {
        "kind": "dev",
        "methods": {
            "owner()": {
                "details": "Returns the address of the current owner."
            },
            "renounceOwnership()": {
                "details": "Leaves the contract without owner. It will not be possible to call `onlyOwner` functions anymore. Can only be called by the current owner. NOTE: Renouncing ownership will leave the contract without an owner, thereby removing any functionality that is only available to the owner."
            },
            "transferOwnership(address)": {
                "details": "Transfers ownership of the contract to a new account (`newOwner`). Can only be called by the current owner."
            }
        },
        "version": 1
    },
    "userdoc": {
        "kind": "user",
        "methods": {
            "confirmTrustee()": {
                "notice": "Confirm Trustee"
            },
            "destroyShardContract()": {
                "notice": "Destroy Shard contract"
            },
            "triggerRecoveryEvent(string)": {
                "notice": "Trigger Recovery Event Triggering the recovery event will send a recovery NFT to the addresses of the token holders Any of the shard owners can trigger this event"
            }
        },
        "version": 1
    }
}