{
  "contractName": "EthereumDIDRegistry",
  "abi": [
    {
      "constant": true,
      "inputs": [
        {
          "name": "",
          "type": "address"
        }
      ],
      "name": "owners",
      "outputs": [
        {
          "name": "",
          "type": "address"
        }
      ],
      "payable": false,
      "stateMutability": "view",
      "type": "function"
    },
    {
      "constant": true,
      "inputs": [
        {
          "name": "",
          "type": "address"
        },
        {
          "name": "",
          "type": "bytes32"
        },
        {
          "name": "",
          "type": "address"
        }
      ],
      "name": "delegates",
      "outputs": [
        {
          "name": "",
          "type": "uint256"
        }
      ],
      "payable": false,
      "stateMutability": "view",
      "type": "function"
    },
    {
      "constant": true,
      "inputs": [
        {
          "name": "",
          "type": "address"
        }
      ],
      "name": "nonce",
      "outputs": [
        {
          "name": "",
          "type": "uint256"
        }
      ],
      "payable": false,
      "stateMutability": "view",
      "type": "function"
    },
    {
      "constant": true,
      "inputs": [
        {
          "name": "",
          "type": "address"
        }
      ],
      "name": "changed",
      "outputs": [
        {
          "name": "",
          "type": "uint256"
        }
      ],
      "payable": false,
      "stateMutability": "view",
      "type": "function"
    },
    {
      "anonymous": false,
      "inputs": [
        {
          "indexed": true,
          "name": "identity",
          "type": "address"
        },
        {
          "indexed": false,
          "name": "owner",
          "type": "address"
        },
        {
          "indexed": false,
          "name": "previousChange",
          "type": "uint256"
        }
      ],
      "name": "DIDOwnerChanged",
      "type": "event"
    },
    {
      "anonymous": false,
      "inputs": [
        {
          "indexed": true,
          "name": "identity",
          "type": "address"
        },
        {
          "indexed": false,
          "name": "delegateType",
          "type": "bytes32"
        },
        {
          "indexed": false,
          "name": "delegate",
          "type": "address"
        },
        {
          "indexed": false,
          "name": "validTo",
          "type": "uint256"
        },
        {
          "indexed": false,
          "name": "previousChange",
          "type": "uint256"
        }
      ],
      "name": "DIDDelegateChanged",
      "type": "event"
    },
    {
      "anonymous": false,
      "inputs": [
        {
          "indexed": true,
          "name": "identity",
          "type": "address"
        },
        {
          "indexed": false,
          "name": "name",
          "type": "bytes32"
        },
        {
          "indexed": false,
          "name": "value",
          "type": "bytes"
        },
        {
          "indexed": false,
          "name": "validTo",
          "type": "uint256"
        },
        {
          "indexed": false,
          "name": "previousChange",
          "type": "uint256"
        }
      ],
      "name": "DIDAttributeChanged",
      "type": "event"
    },
    {
      "constant": true,
      "inputs": [
        {
          "name": "identity",
          "type": "address"
        }
      ],
      "name": "identityOwner",
      "outputs": [
        {
          "name": "",
          "type": "address"
        }
      ],
      "payable": false,
      "stateMutability": "view",
      "type": "function"
    },
    {
      "constant": true,
      "inputs": [
        {
          "name": "identity",
          "type": "address"
        },
        {
          "name": "delegateType",
          "type": "bytes32"
        },
        {
          "name": "delegate",
          "type": "address"
        }
      ],
      "name": "validDelegate",
      "outputs": [
        {
          "name": "",
          "type": "bool"
        }
      ],
      "payable": false,
      "stateMutability": "view",
      "type": "function"
    },
    {
      "constant": false,
      "inputs": [
        {
          "name": "identity",
          "type": "address"
        },
        {
          "name": "newOwner",
          "type": "address"
        }
      ],
      "name": "changeOwner",
      "outputs": [],
      "payable": false,
      "stateMutability": "nonpayable",
      "type": "function"
    },
    {
      "constant": false,
      "inputs": [
        {
          "name": "identity",
          "type": "address"
        },
        {
          "name": "sigV",
          "type": "uint8"
        },
        {
          "name": "sigR",
          "type": "bytes32"
        },
        {
          "name": "sigS",
          "type": "bytes32"
        },
        {
          "name": "newOwner",
          "type": "address"
        }
      ],
      "name": "changeOwnerSigned",
      "outputs": [],
      "payable": false,
      "stateMutability": "nonpayable",
      "type": "function"
    },
    {
      "constant": false,
      "inputs": [
        {
          "name": "identity",
          "type": "address"
        },
        {
          "name": "delegateType",
          "type": "bytes32"
        },
        {
          "name": "delegate",
          "type": "address"
        },
        {
          "name": "validity",
          "type": "uint256"
        }
      ],
      "name": "addDelegate",
      "outputs": [],
      "payable": false,
      "stateMutability": "nonpayable",
      "type": "function"
    },
    {
      "constant": false,
      "inputs": [
        {
          "name": "identity",
          "type": "address"
        },
        {
          "name": "sigV",
          "type": "uint8"
        },
        {
          "name": "sigR",
          "type": "bytes32"
        },
        {
          "name": "sigS",
          "type": "bytes32"
        },
        {
          "name": "delegateType",
          "type": "bytes32"
        },
        {
          "name": "delegate",
          "type": "address"
        },
        {
          "name": "validity",
          "type": "uint256"
        }
      ],
      "name": "addDelegateSigned",
      "outputs": [],
      "payable": false,
      "stateMutability": "nonpayable",
      "type": "function"
    },
    {
      "constant": false,
      "inputs": [
        {
          "name": "identity",
          "type": "address"
        },
        {
          "name": "delegateType",
          "type": "bytes32"
        },
        {
          "name": "delegate",
          "type": "address"
        }
      ],
      "name": "revokeDelegate",
      "outputs": [],
      "payable": false,
      "stateMutability": "nonpayable",
      "type": "function"
    },
    {
      "constant": false,
      "inputs": [
        {
          "name": "identity",
          "type": "address"
        },
        {
          "name": "sigV",
          "type": "uint8"
        },
        {
          "name": "sigR",
          "type": "bytes32"
        },
        {
          "name": "sigS",
          "type": "bytes32"
        },
        {
          "name": "delegateType",
          "type": "bytes32"
        },
        {
          "name": "delegate",
          "type": "address"
        }
      ],
      "name": "revokeDelegateSigned",
      "outputs": [],
      "payable": false,
      "stateMutability": "nonpayable",
      "type": "function"
    },
    {
      "constant": false,
      "inputs": [
        {
          "name": "identity",
          "type": "address"
        },
        {
          "name": "name",
          "type": "bytes32"
        },
        {
          "name": "value",
          "type": "bytes"
        },
        {
          "name": "validity",
          "type": "uint256"
        }
      ],
      "name": "setAttribute",
      "outputs": [],
      "payable": false,
      "stateMutability": "nonpayable",
      "type": "function"
    },
    {
      "constant": false,
      "inputs": [
        {
          "name": "identity",
          "type": "address"
        },
        {
          "name": "sigV",
          "type": "uint8"
        },
        {
          "name": "sigR",
          "type": "bytes32"
        },
        {
          "name": "sigS",
          "type": "bytes32"
        },
        {
          "name": "name",
          "type": "bytes32"
        },
        {
          "name": "value",
          "type": "bytes"
        },
        {
          "name": "validity",
          "type": "uint256"
        }
      ],
      "name": "setAttributeSigned",
      "outputs": [],
      "payable": false,
      "stateMutability": "nonpayable",
      "type": "function"
    },
    {
      "constant": false,
      "inputs": [
        {
          "name": "identity",
          "type": "address"
        },
        {
          "name": "name",
          "type": "bytes32"
        },
        {
          "name": "value",
          "type": "bytes"
        }
      ],
      "name": "revokeAttribute",
      "outputs": [],
      "payable": false,
      "stateMutability": "nonpayable",
      "type": "function"
    },
    {
      "constant": false,
      "inputs": [
        {
          "name": "identity",
          "type": "address"
        },
        {
          "name": "sigV",
          "type": "uint8"
        },
        {
          "name": "sigR",
          "type": "bytes32"
        },
        {
          "name": "sigS",
          "type": "bytes32"
        },
        {
          "name": "name",
          "type": "bytes32"
        },
        {
          "name": "value",
          "type": "bytes"
        }
      ],
      "name": "revokeAttributeSigned",
      "outputs": [],
      "payable": false,
      "stateMutability": "nonpayable",
      "type": "function"
    }
  ],
  "bytecode": "0x6060604052341561000f57600080fd5b6121ab8061001e6000396000f3006060604052600436106100e5576000357c0100000000000000000000000000000000000000000000000000000000900463ffffffff168062c023da146100ea578063022914a7146101735780630d44625b146101ec578063123b5e9814610265578063240cf1fa1461031d578063622b2a3c1461039b57806370ae92d2146104185780637ad4b0a41461046557806380b29f7c146104f75780638733d4e81461055c57806393072684146105d55780639c2c1b2b14610660578063a7068d66146106f4578063e476af5c14610762578063f00d4b5d14610811578063f96d0f9f14610869575b600080fd5b34156100f557600080fd5b610171600480803573ffffffffffffffffffffffffffffffffffffffff169060200190919080356000191690602001909190803590602001908201803590602001908080601f016020809104026020016040519081016040528093929190818152602001838380828437820191505050505050919050506108b6565b005b341561017e57600080fd5b6101aa600480803573ffffffffffffffffffffffffffffffffffffffff169060200190919050506108c7565b604051808273ffffffffffffffffffffffffffffffffffffffff1673ffffffffffffffffffffffffffffffffffffffff16815260200191505060405180910390f35b34156101f757600080fd5b61024f600480803573ffffffffffffffffffffffffffffffffffffffff169060200190919080356000191690602001909190803573ffffffffffffffffffffffffffffffffffffffff169060200190919050506108fa565b6040518082815260200191505060405180910390f35b341561027057600080fd5b61031b600480803573ffffffffffffffffffffffffffffffffffffffff1690602001909190803560ff1690602001909190803560001916906020019091908035600019169060200190919080356000191690602001909190803590602001908201803590602001908080601f0160208091040260200160405190810160405280939291908181526020018383808284378201915050505050509190803590602001909190505061092c565b005b341561032857600080fd5b610399600480803573ffffffffffffffffffffffffffffffffffffffff1690602001909190803560ff16906020019091908035600019169060200190919080356000191690602001909190803573ffffffffffffffffffffffffffffffffffffffff16906020019091905050610ba9565b005b34156103a657600080fd5b6103fe600480803573ffffffffffffffffffffffffffffffffffffffff169060200190919080356000191690602001909190803573ffffffffffffffffffffffffffffffffffffffff16906020019091905050610df8565b604051808215151515815260200191505060405180910390f35b341561042357600080fd5b61044f600480803573ffffffffffffffffffffffffffffffffffffffff16906020019091905050610ebd565b6040518082815260200191505060405180910390f35b341561047057600080fd5b6104f5600480803573ffffffffffffffffffffffffffffffffffffffff169060200190919080356000191690602001909190803590602001908201803590602001908080601f01602080910402602001604051908101604052809392919081815260200183838082843782019150505050505091908035906020019091905050610ed5565b005b341561050257600080fd5b61055a600480803573ffffffffffffffffffffffffffffffffffffffff169060200190919080356000191690602001909190803573ffffffffffffffffffffffffffffffffffffffff16906020019091905050610ee8565b005b341561056757600080fd5b610593600480803573ffffffffffffffffffffffffffffffffffffffff16906020019091905050610ef9565b604051808273ffffffffffffffffffffffffffffffffffffffff1673ffffffffffffffffffffffffffffffffffffffff16815260200191505060405180910390f35b34156105e057600080fd5b61065e600480803573ffffffffffffffffffffffffffffffffffffffff1690602001909190803560ff1690602001909190803560001916906020019091908035600019169060200190919080356000191690602001909190803573ffffffffffffffffffffffffffffffffffffffff16906020019091905050610f8f565b005b341561066b57600080fd5b6106f2600480803573ffffffffffffffffffffffffffffffffffffffff1690602001909190803560ff1690602001909190803560001916906020019091908035600019169060200190919080356000191690602001909190803573ffffffffffffffffffffffffffffffffffffffff169060200190919080359060200190919050506111f0565b005b34156106ff57600080fd5b610760600480803573ffffffffffffffffffffffffffffffffffffffff169060200190919080356000191690602001909190803573ffffffffffffffffffffffffffffffffffffffff1690602001909190803590602001909190505061145b565b005b341561076d57600080fd5b61080f600480803573ffffffffffffffffffffffffffffffffffffffff1690602001909190803560ff1690602001909190803560001916906020019091908035600019169060200190919080356000191690602001909190803590602001908201803590602001908080601f0160208091040260200160405190810160405280939291908181526020018383808284378201915050505050509190505061146e565b005b341561081c57600080fd5b610867600480803573ffffffffffffffffffffffffffffffffffffffff1690602001909190803573ffffffffffffffffffffffffffffffffffffffff169060200190919050506116e1565b005b341561087457600080fd5b6108a0600480803573ffffffffffffffffffffffffffffffffffffffff169060200190919050506116f0565b6040518082815260200191505060405180910390f35b6108c283338484611708565b505050565b60006020528060005260406000206000915054906101000a900473ffffffffffffffffffffffffffffffffffffffff1681565b600160205282600052604060002060205281600052604060002060205280600052604060002060009250925050505481565b600060197f01000000000000000000000000000000000000000000000000000000000000000260007f01000000000000000000000000000000000000000000000000000000000000000230600360006109848d610ef9565b73ffffffffffffffffffffffffffffffffffffffff1673ffffffffffffffffffffffffffffffffffffffff168152602001908152602001600020548b88888860405180897effffffffffffffffffffffffffffffffffffffffffffffffffffffffffffff19167effffffffffffffffffffffffffffffffffffffffffffffffffffffffffffff19168152600101887effffffffffffffffffffffffffffffffffffffffffffffffffffffffffffff19167effffffffffffffffffffffffffffffffffffffffffffffffffffffffffffff191681526001018773ffffffffffffffffffffffffffffffffffffffff1673ffffffffffffffffffffffffffffffffffffffff166c010000000000000000000000000281526014018681526020018573ffffffffffffffffffffffffffffffffffffffff1673ffffffffffffffffffffffffffffffffffffffff166c01000000000000000000000000028152601401807f7365744174747269627574650000000000000000000000000000000000000000815250600c01846000191660001916815260200183805190602001908083835b602083101515610b4a5780518252602082019150602081019050602083039250610b25565b6001836020036101000a0380198251168184511680821785525050505050509050018281526020019850505050505050505060405180910390209050610b9f88610b978a8a8a8a876118ab565b8686866119c8565b5050505050505050565b600060197f01000000000000000000000000000000000000000000000000000000000000000260007f0100000000000000000000000000000000000000000000000000000000000000023060036000610c018b610ef9565b73ffffffffffffffffffffffffffffffffffffffff1673ffffffffffffffffffffffffffffffffffffffff16815260200190815260200160002054898660405180877effffffffffffffffffffffffffffffffffffffffffffffffffffffffffffff19167effffffffffffffffffffffffffffffffffffffffffffffffffffffffffffff19168152600101867effffffffffffffffffffffffffffffffffffffffffffffffffffffffffffff19167effffffffffffffffffffffffffffffffffffffffffffffffffffffffffffff191681526001018573ffffffffffffffffffffffffffffffffffffffff1673ffffffffffffffffffffffffffffffffffffffff166c010000000000000000000000000281526014018481526020018373ffffffffffffffffffffffffffffffffffffffff1673ffffffffffffffffffffffffffffffffffffffff166c01000000000000000000000000028152601401807f6368616e67654f776e6572000000000000000000000000000000000000000000815250600b018273ffffffffffffffffffffffffffffffffffffffff1673ffffffffffffffffffffffffffffffffffffffff166c01000000000000000000000000028152601401965050505050505060405180910390209050610df086610dea88888888876118ab565b84611b6d565b505050505050565b600080600160008673ffffffffffffffffffffffffffffffffffffffff1673ffffffffffffffffffffffffffffffffffffffff16815260200190815260200160002060008560405180826000191660001916815260200191505060405180910390206000191660001916815260200190815260200160002060008473ffffffffffffffffffffffffffffffffffffffff1673ffffffffffffffffffffffffffffffffffffffff1681526020019081526020016000205490504281119150509392505050565b60036020528060005260406000206000915090505481565b610ee284338585856119c8565b50505050565b610ef483338484611d3a565b505050565b6000806000808473ffffffffffffffffffffffffffffffffffffffff1673ffffffffffffffffffffffffffffffffffffffff16815260200190815260200160002060009054906101000a900473ffffffffffffffffffffffffffffffffffffffff16905060008173ffffffffffffffffffffffffffffffffffffffff16141515610f8557809150610f89565b8291505b50919050565b600060197f01000000000000000000000000000000000000000000000000000000000000000260007f0100000000000000000000000000000000000000000000000000000000000000023060036000610fe78c610ef9565b73ffffffffffffffffffffffffffffffffffffffff1673ffffffffffffffffffffffffffffffffffffffff168152602001908152602001600020548a878760405180887effffffffffffffffffffffffffffffffffffffffffffffffffffffffffffff19167effffffffffffffffffffffffffffffffffffffffffffffffffffffffffffff19168152600101877effffffffffffffffffffffffffffffffffffffffffffffffffffffffffffff19167effffffffffffffffffffffffffffffffffffffffffffffffffffffffffffff191681526001018673ffffffffffffffffffffffffffffffffffffffff1673ffffffffffffffffffffffffffffffffffffffff166c010000000000000000000000000281526014018581526020018473ffffffffffffffffffffffffffffffffffffffff1673ffffffffffffffffffffffffffffffffffffffff166c01000000000000000000000000028152601401807f7265766f6b6544656c6567617465000000000000000000000000000000000000815250600e0183600019166000191681526020018273ffffffffffffffffffffffffffffffffffffffff1673ffffffffffffffffffffffffffffffffffffffff166c01000000000000000000000000028152601401975050505050505050604051809103902090506111e7876111e089898989876118ab565b8585611d3a565b50505050505050565b600060197f01000000000000000000000000000000000000000000000000000000000000000260007f01000000000000000000000000000000000000000000000000000000000000000230600360006112488d610ef9565b73ffffffffffffffffffffffffffffffffffffffff1673ffffffffffffffffffffffffffffffffffffffff168152602001908152602001600020548b88888860405180897effffffffffffffffffffffffffffffffffffffffffffffffffffffffffffff19167effffffffffffffffffffffffffffffffffffffffffffffffffffffffffffff19168152600101887effffffffffffffffffffffffffffffffffffffffffffffffffffffffffffff19167effffffffffffffffffffffffffffffffffffffffffffffffffffffffffffff191681526001018773ffffffffffffffffffffffffffffffffffffffff1673ffffffffffffffffffffffffffffffffffffffff166c010000000000000000000000000281526014018681526020018573ffffffffffffffffffffffffffffffffffffffff1673ffffffffffffffffffffffffffffffffffffffff166c01000000000000000000000000028152601401807f61646444656c6567617465000000000000000000000000000000000000000000815250600b0184600019166000191681526020018373ffffffffffffffffffffffffffffffffffffffff1673ffffffffffffffffffffffffffffffffffffffff166c010000000000000000000000000281526014018281526020019850505050505050505060405180910390209050611451886114498a8a8a8a876118ab565b868686611f5a565b5050505050505050565b6114688433858585611f5a565b50505050565b600060197f01000000000000000000000000000000000000000000000000000000000000000260007f01000000000000000000000000000000000000000000000000000000000000000230600360006114c68c610ef9565b73ffffffffffffffffffffffffffffffffffffffff1673ffffffffffffffffffffffffffffffffffffffff168152602001908152602001600020548a878760405180887effffffffffffffffffffffffffffffffffffffffffffffffffffffffffffff19167effffffffffffffffffffffffffffffffffffffffffffffffffffffffffffff19168152600101877effffffffffffffffffffffffffffffffffffffffffffffffffffffffffffff19167effffffffffffffffffffffffffffffffffffffffffffffffffffffffffffff191681526001018673ffffffffffffffffffffffffffffffffffffffff1673ffffffffffffffffffffffffffffffffffffffff166c010000000000000000000000000281526014018581526020018473ffffffffffffffffffffffffffffffffffffffff1673ffffffffffffffffffffffffffffffffffffffff166c01000000000000000000000000028152601401807f7265766f6b654174747269627574650000000000000000000000000000000000815250600f01836000191660001916815260200182805190602001908083835b60208310151561168b5780518252602082019150602081019050602083039250611666565b6001836020036101000a038019825116818451168082178552505050505050905001975050505050505050604051809103902090506116d8876116d189898989876118ab565b8585611708565b50505050505050565b6116ec823383611b6d565b5050565b60026020528060005260406000206000915090505481565b838361171382610ef9565b73ffffffffffffffffffffffffffffffffffffffff168173ffffffffffffffffffffffffffffffffffffffff1614151561174c57600080fd5b8573ffffffffffffffffffffffffffffffffffffffff167f18ab6b2ae3d64306c00ce663125f2bd680e441a098de1635bd7ad8b0d44965e485856000600260008c73ffffffffffffffffffffffffffffffffffffffff1673ffffffffffffffffffffffffffffffffffffffff1681526020019081526020016000205460405180856000191660001916815260200180602001848152602001838152602001828103825285818151815260200191508051906020019080838360005b83811015611822578082015181840152602081019050611807565b50505050905090810190601f16801561184f5780820380516001836020036101000a031916815260200191505b509550505050505060405180910390a243600260008873ffffffffffffffffffffffffffffffffffffffff1673ffffffffffffffffffffffffffffffffffffffff16815260200190815260200160002081905550505050505050565b600080600183878787604051600081526020016040526040518085600019166000191681526020018460ff1660ff1681526020018360001916600019168152602001826000191660001916815260200194505050505060206040516020810390808403906000865af1151561191f57600080fd5b505060206040510351905061193387610ef9565b73ffffffffffffffffffffffffffffffffffffffff168173ffffffffffffffffffffffffffffffffffffffff1614151561196c57600080fd5b600360008273ffffffffffffffffffffffffffffffffffffffff1673ffffffffffffffffffffffffffffffffffffffff168152602001908152602001600020600081548092919060010191905055508091505095945050505050565b84846119d382610ef9565b73ffffffffffffffffffffffffffffffffffffffff168173ffffffffffffffffffffffffffffffffffffffff16141515611a0c57600080fd5b8673ffffffffffffffffffffffffffffffffffffffff167f18ab6b2ae3d64306c00ce663125f2bd680e441a098de1635bd7ad8b0d44965e48686864201600260008d73ffffffffffffffffffffffffffffffffffffffff1673ffffffffffffffffffffffffffffffffffffffff1681526020019081526020016000205460405180856000191660001916815260200180602001848152602001838152602001828103825285818151815260200191508051906020019080838360005b83811015611ae3578082015181840152602081019050611ac8565b50505050905090810190601f168015611b105780820380516001836020036101000a031916815260200191505b509550505050505060405180910390a243600260008973ffffffffffffffffffffffffffffffffffffffff1673ffffffffffffffffffffffffffffffffffffffff1681526020019081526020016000208190555050505050505050565b8282611b7882610ef9565b73ffffffffffffffffffffffffffffffffffffffff168173ffffffffffffffffffffffffffffffffffffffff16141515611bb157600080fd5b826000808773ffffffffffffffffffffffffffffffffffffffff1673ffffffffffffffffffffffffffffffffffffffff16815260200190815260200160002060006101000a81548173ffffffffffffffffffffffffffffffffffffffff021916908373ffffffffffffffffffffffffffffffffffffffff1602179055508473ffffffffffffffffffffffffffffffffffffffff167f38a5a6e68f30ed1ab45860a4afb34bcb2fc00f22ca462d249b8a8d40cda6f7a384600260008973ffffffffffffffffffffffffffffffffffffffff1673ffffffffffffffffffffffffffffffffffffffff16815260200190815260200160002054604051808373ffffffffffffffffffffffffffffffffffffffff1673ffffffffffffffffffffffffffffffffffffffff1681526020018281526020019250505060405180910390a243600260008773ffffffffffffffffffffffffffffffffffffffff1673ffffffffffffffffffffffffffffffffffffffff168152602001908152602001600020819055505050505050565b8383611d4582610ef9565b73ffffffffffffffffffffffffffffffffffffffff168173ffffffffffffffffffffffffffffffffffffffff16141515611d7e57600080fd5b42600160008873ffffffffffffffffffffffffffffffffffffffff1673ffffffffffffffffffffffffffffffffffffffff16815260200190815260200160002060008660405180826000191660001916815260200191505060405180910390206000191660001916815260200190815260200160002060008573ffffffffffffffffffffffffffffffffffffffff1673ffffffffffffffffffffffffffffffffffffffff168152602001908152602001600020819055508573ffffffffffffffffffffffffffffffffffffffff167f5a5084339536bcab65f20799fcc58724588145ca054bd2be626174b27ba156f7858542600260008c73ffffffffffffffffffffffffffffffffffffffff1673ffffffffffffffffffffffffffffffffffffffff168152602001908152602001600020546040518085600019166000191681526020018473ffffffffffffffffffffffffffffffffffffffff1673ffffffffffffffffffffffffffffffffffffffff16815260200183815260200182815260200194505050505060405180910390a243600260008873ffffffffffffffffffffffffffffffffffffffff1673ffffffffffffffffffffffffffffffffffffffff16815260200190815260200160002081905550505050505050565b8484611f6582610ef9565b73ffffffffffffffffffffffffffffffffffffffff168173ffffffffffffffffffffffffffffffffffffffff16141515611f9e57600080fd5b824201600160008973ffffffffffffffffffffffffffffffffffffffff1673ffffffffffffffffffffffffffffffffffffffff16815260200190815260200160002060008760405180826000191660001916815260200191505060405180910390206000191660001916815260200190815260200160002060008673ffffffffffffffffffffffffffffffffffffffff1673ffffffffffffffffffffffffffffffffffffffff168152602001908152602001600020819055508673ffffffffffffffffffffffffffffffffffffffff167f5a5084339536bcab65f20799fcc58724588145ca054bd2be626174b27ba156f78686864201600260008d73ffffffffffffffffffffffffffffffffffffffff1673ffffffffffffffffffffffffffffffffffffffff168152602001908152602001600020546040518085600019166000191681526020018473ffffffffffffffffffffffffffffffffffffffff1673ffffffffffffffffffffffffffffffffffffffff16815260200183815260200182815260200194505050505060405180910390a243600260008973ffffffffffffffffffffffffffffffffffffffff1673ffffffffffffffffffffffffffffffffffffffff16815260200190815260200160002081905550505050505050505600a165627a7a72305820fa8bd7c4a6bf2643d1fb4d51425369f7e887711d96acb571d469f0491456acb00029",
  "source": "pragma solidity ^0.4.21;\r\n\r\ncontract EthereumDIDRegistry {\r\n    mapping(address => address) public owners;\r\n    mapping(address => mapping(bytes32 => mapping(address => uint256)))\r\n        public delegates;\r\n    mapping(address => uint256) public changed;\r\n    mapping(address => uint256) public nonce;\r\n\r\n    modifier onlyOwner(address identity, address actor) {\r\n        require(actor == identityOwner(identity));\r\n        _;\r\n    }\r\n\r\n    event DIDOwnerChanged(\r\n        address indexed identity,\r\n        address owner,\r\n        uint256 previousChange\r\n    );\r\n\r\n    event DIDDelegateChanged(\r\n        address indexed identity,\r\n        bytes32 delegateType,\r\n        address delegate,\r\n        uint256 validTo,\r\n        uint256 previousChange\r\n    );\r\n\r\n    event DIDAttributeChanged(\r\n        address indexed identity,\r\n        bytes32 name,\r\n        bytes value,\r\n        uint256 validTo,\r\n        uint256 previousChange\r\n    );\r\n\r\n    function identityOwner(address identity) public view returns (address) {\r\n        address owner = owners[identity];\r\n        if (owner != 0x0) {\r\n            return owner;\r\n        }\r\n        return identity;\r\n    }\r\n\r\n    function checkSignature(\r\n        address identity,\r\n        uint8 sigV,\r\n        bytes32 sigR,\r\n        bytes32 sigS,\r\n        bytes32 hash\r\n    ) internal returns (address) {\r\n        address signer = ecrecover(hash, sigV, sigR, sigS);\r\n        require(signer == identityOwner(identity));\r\n        nonce[signer]++;\r\n        return signer;\r\n    }\r\n\r\n    function validDelegate(\r\n        address identity,\r\n        bytes32 delegateType,\r\n        address delegate\r\n    ) public view returns (bool) {\r\n        uint256 validity =\r\n            delegates[identity][keccak256(delegateType)][delegate];\r\n        return (validity > now);\r\n    }\r\n\r\n    function changeOwner(\r\n        address identity,\r\n        address actor,\r\n        address newOwner\r\n    ) internal onlyOwner(identity, actor) {\r\n        owners[identity] = newOwner;\r\n        emit DIDOwnerChanged(identity, newOwner, changed[identity]);\r\n        changed[identity] = block.number;\r\n    }\r\n\r\n    function changeOwner(address identity, address newOwner) public {\r\n        changeOwner(identity, msg.sender, newOwner);\r\n    }\r\n\r\n    function changeOwnerSigned(\r\n        address identity,\r\n        uint8 sigV,\r\n        bytes32 sigR,\r\n        bytes32 sigS,\r\n        address newOwner\r\n    ) public {\r\n        bytes32 hash =\r\n            keccak256(\r\n                bytes1(0x19),\r\n                bytes1(0),\r\n                this,\r\n                nonce[identityOwner(identity)],\r\n                identity,\r\n                \"changeOwner\",\r\n                newOwner\r\n            );\r\n        changeOwner(\r\n            identity,\r\n            checkSignature(identity, sigV, sigR, sigS, hash),\r\n            newOwner\r\n        );\r\n    }\r\n\r\n    function addDelegate(\r\n        address identity,\r\n        address actor,\r\n        bytes32 delegateType,\r\n        address delegate,\r\n        uint256 validity\r\n    ) internal onlyOwner(identity, actor) {\r\n        delegates[identity][keccak256(delegateType)][delegate] = now + validity;\r\n        emit DIDDelegateChanged(\r\n            identity,\r\n            delegateType,\r\n            delegate,\r\n            now + validity,\r\n            changed[identity]\r\n        );\r\n        changed[identity] = block.number;\r\n    }\r\n\r\n    function addDelegate(\r\n        address identity,\r\n        bytes32 delegateType,\r\n        address delegate,\r\n        uint256 validity\r\n    ) public {\r\n        addDelegate(identity, msg.sender, delegateType, delegate, validity);\r\n    }\r\n\r\n    function addDelegateSigned(\r\n        address identity,\r\n        uint8 sigV,\r\n        bytes32 sigR,\r\n        bytes32 sigS,\r\n        bytes32 delegateType,\r\n        address delegate,\r\n        uint256 validity\r\n    ) public {\r\n        bytes32 hash =\r\n            keccak256(\r\n                bytes1(0x19),\r\n                bytes1(0),\r\n                this,\r\n                nonce[identityOwner(identity)],\r\n                identity,\r\n                \"addDelegate\",\r\n                delegateType,\r\n                delegate,\r\n                validity\r\n            );\r\n        addDelegate(\r\n            identity,\r\n            checkSignature(identity, sigV, sigR, sigS, hash),\r\n            delegateType,\r\n            delegate,\r\n            validity\r\n        );\r\n    }\r\n\r\n    function revokeDelegate(\r\n        address identity,\r\n        address actor,\r\n        bytes32 delegateType,\r\n        address delegate\r\n    ) internal onlyOwner(identity, actor) {\r\n        delegates[identity][keccak256(delegateType)][delegate] = now;\r\n        emit DIDDelegateChanged(\r\n            identity,\r\n            delegateType,\r\n            delegate,\r\n            now,\r\n            changed[identity]\r\n        );\r\n        changed[identity] = block.number;\r\n    }\r\n\r\n    function revokeDelegate(\r\n        address identity,\r\n        bytes32 delegateType,\r\n        address delegate\r\n    ) public {\r\n        revokeDelegate(identity, msg.sender, delegateType, delegate);\r\n    }\r\n\r\n    function revokeDelegateSigned(\r\n        address identity,\r\n        uint8 sigV,\r\n        bytes32 sigR,\r\n        bytes32 sigS,\r\n        bytes32 delegateType,\r\n        address delegate\r\n    ) public {\r\n        bytes32 hash =\r\n            keccak256(\r\n                bytes1(0x19),\r\n                bytes1(0),\r\n                this,\r\n                nonce[identityOwner(identity)],\r\n                identity,\r\n                \"revokeDelegate\",\r\n                delegateType,\r\n                delegate\r\n            );\r\n        revokeDelegate(\r\n            identity,\r\n            checkSignature(identity, sigV, sigR, sigS, hash),\r\n            delegateType,\r\n            delegate\r\n        );\r\n    }\r\n\r\n    function setAttribute(\r\n        address identity,\r\n        address actor,\r\n        bytes32 name,\r\n        bytes value,\r\n        uint256 validity\r\n    ) internal onlyOwner(identity, actor) {\r\n        emit DIDAttributeChanged(\r\n            identity,\r\n            name,\r\n            value,\r\n            now + validity,\r\n            changed[identity]\r\n        );\r\n        changed[identity] = block.number;\r\n    }\r\n\r\n    function setAttribute(\r\n        address identity,\r\n        bytes32 name,\r\n        bytes value,\r\n        uint256 validity\r\n    ) public {\r\n        setAttribute(identity, msg.sender, name, value, validity);\r\n    }\r\n\r\n    function setAttributeSigned(\r\n        address identity,\r\n        uint8 sigV,\r\n        bytes32 sigR,\r\n        bytes32 sigS,\r\n        bytes32 name,\r\n        bytes value,\r\n        uint256 validity\r\n    ) public {\r\n        bytes32 hash =\r\n            keccak256(\r\n                bytes1(0x19),\r\n                bytes1(0),\r\n                this,\r\n                nonce[identityOwner(identity)],\r\n                identity,\r\n                \"setAttribute\",\r\n                name,\r\n                value,\r\n                validity\r\n            );\r\n        setAttribute(\r\n            identity,\r\n            checkSignature(identity, sigV, sigR, sigS, hash),\r\n            name,\r\n            value,\r\n            validity\r\n        );\r\n    }\r\n\r\n    function revokeAttribute(\r\n        address identity,\r\n        address actor,\r\n        bytes32 name,\r\n        bytes value\r\n    ) internal onlyOwner(identity, actor) {\r\n        emit DIDAttributeChanged(identity, name, value, 0, changed[identity]);\r\n        changed[identity] = block.number;\r\n    }\r\n\r\n    function revokeAttribute(\r\n        address identity,\r\n        bytes32 name,\r\n        bytes value\r\n    ) public {\r\n        revokeAttribute(identity, msg.sender, name, value);\r\n    }\r\n\r\n    function revokeAttributeSigned(\r\n        address identity,\r\n        uint8 sigV,\r\n        bytes32 sigR,\r\n        bytes32 sigS,\r\n        bytes32 name,\r\n        bytes value\r\n    ) public {\r\n        bytes32 hash =\r\n            keccak256(\r\n                bytes1(0x19),\r\n                bytes1(0),\r\n                this,\r\n                nonce[identityOwner(identity)],\r\n                identity,\r\n                \"revokeAttribute\",\r\n                name,\r\n                value\r\n            );\r\n        revokeAttribute(\r\n            identity,\r\n            checkSignature(identity, sigV, sigR, sigS, hash),\r\n            name,\r\n            value\r\n        );\r\n    }\r\n}\r\n",
  "sourcePath": "C:/Users/schee/Documents/Uni/FYP/Project/contracts/EthDidRegistry.sol",
  "compiler": {
    "name": "solc",
    "version": "0.4.21+commit.dfe3193c.Emscripten.clang"
  },
  "schemaVersion": "3.3.3",
  "updatedAt": "2021-02-05T17:44:08.441Z",
  "networkType": "ethereum",
  "devdoc": {
    "methods": {}
  },
  "userdoc": {
    "methods": {}
  }
}