{
  "contractName": "ShardManager",
  "abi": [
    {
      "anonymous": false,
      "inputs": [
        {
          "indexed": true,
          "internalType": "address",
          "name": "ownerAddress",
          "type": "address"
        },
        {
          "indexed": false,
          "internalType": "address",
          "name": "contractAddress",
          "type": "address"
        }
      ],
      "name": "ShardRecoveryStep",
      "type": "event"
    },
    {
      "inputs": [
        {
          "internalType": "address",
          "name": "",
          "type": "address"
        }
      ],
      "name": "contractMappings",
      "outputs": [
        {
          "internalType": "address",
          "name": "",
          "type": "address"
        }
      ],
      "stateMutability": "view",
      "type": "function",
      "constant": true
    },
    {
      "inputs": [
        {
          "internalType": "address",
          "name": "_recoveryContractOwner",
          "type": "address"
        },
        {
          "internalType": "uint256",
          "name": "_threshold",
          "type": "uint256"
        }
      ],
      "name": "createRecoveryContract",
      "outputs": [],
      "stateMutability": "nonpayable",
      "type": "function"
    },
    {
      "inputs": [
        {
          "internalType": "address",
          "name": "_contractOwner",
          "type": "address"
        },
        {
          "internalType": "address",
          "name": "_sender",
          "type": "address"
        },
        {
          "internalType": "uint256",
          "name": "_step",
          "type": "uint256"
        }
      ],
      "name": "updateRecoveryState",
      "outputs": [],
      "stateMutability": "nonpayable",
      "type": "function"
    },
    {
      "inputs": [
        {
          "internalType": "address",
          "name": "_newOwner",
          "type": "address"
        },
        {
          "internalType": "address",
          "name": "_currentOwner",
          "type": "address"
        },
        {
          "internalType": "address",
          "name": "_childContractAddr",
          "type": "address"
        }
      ],
      "name": "setNewContractOwner",
      "outputs": [],
      "stateMutability": "nonpayable",
      "type": "function"
    }
  ],
  "bytecode": "0x608060405234801561001057600080fd5b50615f30806100206000396000f3fe608060405234801561001057600080fd5b506004361061004c5760003560e01c806310f1e3a414610051578063317c51b11461009f578063500793a914610123578063bc7b8cdd14610191575b600080fd5b61009d6004803603604081101561006757600080fd5b81019080803573ffffffffffffffffffffffffffffffffffffffff169060200190929190803590602001909291905050506101ff565b005b610121600480360360608110156100b557600080fd5b81019080803573ffffffffffffffffffffffffffffffffffffffff169060200190929190803573ffffffffffffffffffffffffffffffffffffffff169060200190929190803573ffffffffffffffffffffffffffffffffffffffff16906020019092919050505061035c565b005b61018f6004803603606081101561013957600080fd5b81019080803573ffffffffffffffffffffffffffffffffffffffff169060200190929190803573ffffffffffffffffffffffffffffffffffffffff16906020019092919080359060200190929190505050610572565b005b6101d3600480360360208110156101a757600080fd5b81019080803573ffffffffffffffffffffffffffffffffffffffff1690602001909291905050506106c3565b604051808273ffffffffffffffffffffffffffffffffffffffff16815260200191505060405180910390f35b6000308383604051610210906106f6565b808473ffffffffffffffffffffffffffffffffffffffff1681526020018373ffffffffffffffffffffffffffffffffffffffff1681526020018260ff1681526020019350505050604051809103906000f080158015610273573d6000803e3d6000fd5b509050806000808573ffffffffffffffffffffffffffffffffffffffff1673ffffffffffffffffffffffffffffffffffffffff16815260200190815260200160002060006101000a81548173ffffffffffffffffffffffffffffffffffffffff021916908373ffffffffffffffffffffffffffffffffffffffff1602179055508273ffffffffffffffffffffffffffffffffffffffff167f9012877cfd663ee8113e40251a165ff85e9f23bb7492852d5b3795bfc143763782604051808273ffffffffffffffffffffffffffffffffffffffff16815260200191505060405180910390a2505050565b6000808373ffffffffffffffffffffffffffffffffffffffff1673ffffffffffffffffffffffffffffffffffffffff16815260200190815260200160002060009054906101000a900473ffffffffffffffffffffffffffffffffffffffff1673ffffffffffffffffffffffffffffffffffffffff163373ffffffffffffffffffffffffffffffffffffffff1614801561047e57508073ffffffffffffffffffffffffffffffffffffffff166000808473ffffffffffffffffffffffffffffffffffffffff1673ffffffffffffffffffffffffffffffffffffffff16815260200190815260200160002060009054906101000a900473ffffffffffffffffffffffffffffffffffffffff1673ffffffffffffffffffffffffffffffffffffffff16145b6104f0576040517f08c379a00000000000000000000000000000000000000000000000000000000081526004018080602001828103825260138152602001807f53656e646572206e6f7420436f6e74726163740000000000000000000000000081525060200191505060405180910390fd5b806000808573ffffffffffffffffffffffffffffffffffffffff1673ffffffffffffffffffffffffffffffffffffffff16815260200190815260200160002060006101000a81548173ffffffffffffffffffffffffffffffffffffffff021916908373ffffffffffffffffffffffffffffffffffffffff160217905550505050565b6000600190506000600190508180156105885750805b6105fa576040517f08c379a00000000000000000000000000000000000000000000000000000000081526004018080602001828103825260128152602001807f53656e646572206e6f742074727573746565000000000000000000000000000081525060200191505060405180910390fd5b8473ffffffffffffffffffffffffffffffffffffffff167f9012877cfd663ee8113e40251a165ff85e9f23bb7492852d5b3795bfc14376376000808873ffffffffffffffffffffffffffffffffffffffff1673ffffffffffffffffffffffffffffffffffffffff16815260200190815260200160002060009054906101000a900473ffffffffffffffffffffffffffffffffffffffff16604051808273ffffffffffffffffffffffffffffffffffffffff16815260200191505060405180910390a25050505050565b60006020528060005260406000206000915054906101000a900473ffffffffffffffffffffffffffffffffffffffff1681565b6157f7806107048339019056fe60806040526000600760006101000a81548160ff021916908360ff1602179055503480156200002d57600080fd5b50604051620057f7380380620057f7833981810160405260608110156200005357600080fd5b8101908080519060200190929190805190602001909291908051906020019092919050505060006200008a6200020a60201b60201c565b9050806000806101000a81548173ffffffffffffffffffffffffffffffffffffffff021916908373ffffffffffffffffffffffffffffffffffffffff1602179055508073ffffffffffffffffffffffffffffffffffffffff16600073ffffffffffffffffffffffffffffffffffffffff167f8be0079c531659141344cd1fd0a4f28419497f9722a3daafe3b4186f6b6457e060405160405180910390a35082600860006101000a81548173ffffffffffffffffffffffffffffffffffffffff021916908373ffffffffffffffffffffffffffffffffffffffff160217905550604051620001779062000440565b604051809103906000f08015801562000194573d6000803e3d6000fd5b50600960006101000a81548173ffffffffffffffffffffffffffffffffffffffff021916908373ffffffffffffffffffffffffffffffffffffffff160217905550620001e6826200021260201b60201c565b80600760006101000a81548160ff021916908360ff1602179055505050506200044e565b600033905090565b620002226200020a60201b60201c565b73ffffffffffffffffffffffffffffffffffffffff16620002486200041760201b60201c565b73ffffffffffffffffffffffffffffffffffffffff1614620002d2576040517f08c379a00000000000000000000000000000000000000000000000000000000081526004018080602001828103825260208152602001807f4f776e61626c653a2063616c6c6572206973206e6f7420746865206f776e657281525060200191505060405180910390fd5b600073ffffffffffffffffffffffffffffffffffffffff168173ffffffffffffffffffffffffffffffffffffffff1614156200035a576040517f08c379a0000000000000000000000000000000000000000000000000000000008152600401808060200182810382526026815260200180620057d16026913960400191505060405180910390fd5b8073ffffffffffffffffffffffffffffffffffffffff1660008054906101000a900473ffffffffffffffffffffffffffffffffffffffff1673ffffffffffffffffffffffffffffffffffffffff167f8be0079c531659141344cd1fd0a4f28419497f9722a3daafe3b4186f6b6457e060405160405180910390a3806000806101000a81548173ffffffffffffffffffffffffffffffffffffffff021916908373ffffffffffffffffffffffffffffffffffffffff16021790555050565b60008060009054906101000a900473ffffffffffffffffffffffffffffffffffffffff16905090565b6130e380620026ee83390190565b612290806200045e6000396000f3fe608060405234801561001057600080fd5b50600436106101425760003560e01c80638da5cb5b116100b8578063beffaf091161007c578063beffaf091461074a578063c6ea0067146107a9578063dbac26e9146107b3578063dd70b55c1461080d578063f2fde38b14610817578063f5cd36431461085b57610142565b80638da5cb5b146105735780638eb4285a146105a75780639bcfb6f914610601578063a9d99795146106bc578063b96184781461071657610142565b806364cc629b1161010a57806364cc629b1461036b5780636fa0245d1461039f578063715018a61461047a578063717d63a414610484578063798c20ea146104dc57806383f3138b1461055557610142565b806321668dd414610147578063238a6acb1461020257806324c8934d1461025a5780633ccfbde31461028e5780635df6849d14610307575b600080fd5b6102006004803603602081101561015d57600080fd5b810190808035906020019064010000000081111561017a57600080fd5b82018360208201111561018c57600080fd5b803590602001918460018302840111640100000000831117156101ae57600080fd5b91908080601f016020809104026020016040519081016040528093929190818152602001838380828437600081840152601f19601f8201169050808301925050505050505091929192905050506108d4565b005b6102446004803603602081101561021857600080fd5b81019080803573ffffffffffffffffffffffffffffffffffffffff169060200190929190505050610cd9565b6040518082815260200191505060405180910390f35b610262610cf1565b604051808273ffffffffffffffffffffffffffffffffffffffff16815260200191505060405180910390f35b610305600480360360208110156102a457600080fd5b81019080803590602001906401000000008111156102c157600080fd5b8201836020820111156102d357600080fd5b803590602001918460208302840111640100000000831117156102f557600080fd5b9091929391929390505050610d17565b005b6103696004803603604081101561031d57600080fd5b81019080803573ffffffffffffffffffffffffffffffffffffffff169060200190929190803573ffffffffffffffffffffffffffffffffffffffff169060200190929190505050610e6c565b005b61037361107e565b604051808273ffffffffffffffffffffffffffffffffffffffff16815260200191505060405180910390f35b610478600480360360408110156103b557600080fd5b81019080803573ffffffffffffffffffffffffffffffffffffffff169060200190929190803590602001906401000000008111156103f257600080fd5b82018360208201111561040457600080fd5b8035906020019184600183028401116401000000008311171561042657600080fd5b91908080601f016020809104026020016040519081016040528093929190818152602001838380828437600081840152601f19601f8201169050808301925050505050505091929192905050506110a8565b005b61048261134e565b005b6104b06004803603602081101561049a57600080fd5b81019080803590602001909291905050506114bb565b604051808273ffffffffffffffffffffffffffffffffffffffff16815260200191505060405180910390f35b610553600480360360208110156104f257600080fd5b810190808035906020019064010000000081111561050f57600080fd5b82018360208201111561052157600080fd5b8035906020019184602083028401116401000000008311171561054357600080fd5b90919293919293905050506114fa565b005b61055d611760565b6040518082815260200191505060405180910390f35b61057b611766565b604051808273ffffffffffffffffffffffffffffffffffffffff16815260200191505060405180910390f35b6105e9600480360360208110156105bd57600080fd5b81019080803573ffffffffffffffffffffffffffffffffffffffff16906020019092919050505061178f565b60405180821515815260200191505060405180910390f35b6106ba6004803603602081101561061757600080fd5b810190808035906020019064010000000081111561063457600080fd5b82018360208201111561064657600080fd5b8035906020019184600183028401116401000000008311171561066857600080fd5b91908080601f016020809104026020016040519081016040528093929190818152602001838380828437600081840152601f19601f8201169050808301925050505050505091929192905050506117af565b005b6106fe600480360360208110156106d257600080fd5b81019080803573ffffffffffffffffffffffffffffffffffffffff169060200190929190505050611ae2565b60405180821515815260200191505060405180910390f35b61071e611b02565b604051808273ffffffffffffffffffffffffffffffffffffffff16815260200191505060405180910390f35b610752611b2c565b6040518080602001828103825283818151815260200191508051906020019060200280838360005b8381101561079557808201518184015260208101905061077a565b505050509050019250505060405180910390f35b6107b1611bba565b005b6107f5600480360360208110156107c957600080fd5b81019080803573ffffffffffffffffffffffffffffffffffffffff169060200190929190505050611c6b565b60405180821515815260200191505060405180910390f35b610815611c8b565b005b6108596004803603602081101561082d57600080fd5b81019080803573ffffffffffffffffffffffffffffffffffffffff169060200190929190505050611ee5565b005b6108d26004803603602081101561087157600080fd5b810190808035906020019064010000000081111561088e57600080fd5b8201836020820111156108a057600080fd5b803590602001918460208302840111640100000000831117156108c257600080fd5b90919293919293905050506120d7565b005b600160003373ffffffffffffffffffffffffffffffffffffffff1673ffffffffffffffffffffffffffffffffffffffff16815260200190815260200160002060009054906101000a900460ff1680156109775750600260003373ffffffffffffffffffffffffffffffffffffffff1673ffffffffffffffffffffffffffffffffffffffff16815260200190815260200160002060009054906101000a900460ff16155b6109e9576040517f08c379a00000000000000000000000000000000000000000000000000000000081526004018080602001828103825260138152602001807f4e6f7420612076616c696420547275737465650000000000000000000000000081525060200191505060405180910390fd5b33600760026101000a81548173ffffffffffffffffffffffffffffffffffffffff021916908373ffffffffffffffffffffffffffffffffffffffff16021790555060005b6006805490508160ff161015610cd5576001600060068360ff1681548110610a5157fe5b9060005260206000200160009054906101000a900473ffffffffffffffffffffffffffffffffffffffff1673ffffffffffffffffffffffffffffffffffffffff1673ffffffffffffffffffffffffffffffffffffffff16815260200190815260200160002060009054906101000a900460ff168015610b5457506002600060068360ff1681548110610adf57fe5b9060005260206000200160009054906101000a900473ffffffffffffffffffffffffffffffffffffffff1673ffffffffffffffffffffffffffffffffffffffff1673ffffffffffffffffffffffffffffffffffffffff16815260200190815260200160002060009054906101000a900460ff16155b15610cc857600960009054906101000a900473ffffffffffffffffffffffffffffffffffffffff1673ffffffffffffffffffffffffffffffffffffffff1663542792b660068360ff1681548110610ba757fe5b9060005260206000200160009054906101000a900473ffffffffffffffffffffffffffffffffffffffff16846040518363ffffffff1660e01b8152600401808373ffffffffffffffffffffffffffffffffffffffff16815260200180602001828103825283818151815260200191508051906020019080838360005b83811015610c3e578082015181840152602081019050610c23565b50505050905090810190601f168015610c6b5780820380516001836020036101000a031916815260200191505b509350505050602060405180830381600087803b158015610c8b57600080fd5b505af1158015610c9f573d6000803e3d6000fd5b505050506040513d6020811015610cb557600080fd5b8101908080519060200190929190505050505b8080600101915050610a2d565b5050565b60046020528060005260406000206000915090505481565b600760029054906101000a900473ffffffffffffffffffffffffffffffffffffffff1681565b610d1f61222c565b73ffffffffffffffffffffffffffffffffffffffff16610d3d611766565b73ffffffffffffffffffffffffffffffffffffffff1614610dc6576040517f08c379a00000000000000000000000000000000000000000000000000000000081526004018080602001828103825260208152602001807f4f776e61626c653a2063616c6c6572206973206e6f7420746865206f776e657281525060200191505060405180910390fd5b60005b828290508160ff161015610e675760006002600085858560ff16818110610dec57fe5b9050602002013573ffffffffffffffffffffffffffffffffffffffff1673ffffffffffffffffffffffffffffffffffffffff1673ffffffffffffffffffffffffffffffffffffffff16815260200190815260200160002060006101000a81548160ff0219169083151502179055508080600101915050610dc9565b505050565b610e7461222c565b73ffffffffffffffffffffffffffffffffffffffff16610e92611766565b73ffffffffffffffffffffffffffffffffffffffff1614610f1b576040517f08c379a00000000000000000000000000000000000000000000000000000000081526004018080602001828103825260208152602001807f4f776e61626c653a2063616c6c6572206973206e6f7420746865206f776e657281525060200191505060405180910390fd5b600860009054906101000a900473ffffffffffffffffffffffffffffffffffffffff1673ffffffffffffffffffffffffffffffffffffffff1663317c51b1833073ffffffffffffffffffffffffffffffffffffffff16638da5cb5b6040518163ffffffff1660e01b815260040160206040518083038186803b158015610fa057600080fd5b505afa158015610fb4573d6000803e3d6000fd5b505050506040513d6020811015610fca57600080fd5b8101908080519060200190929190505050306040518463ffffffff1660e01b8152600401808473ffffffffffffffffffffffffffffffffffffffff1681526020018373ffffffffffffffffffffffffffffffffffffffff1681526020018273ffffffffffffffffffffffffffffffffffffffff1681526020019350505050600060405180830381600087803b15801561106257600080fd5b505af1158015611076573d6000803e3d6000fd5b505050505050565b6000600760029054906101000a900473ffffffffffffffffffffffffffffffffffffffff16905090565b6110b061222c565b73ffffffffffffffffffffffffffffffffffffffff166110ce611766565b73ffffffffffffffffffffffffffffffffffffffff1614611157576040517f08c379a00000000000000000000000000000000000000000000000000000000081526004018080602001828103825260208152602001807f4f776e61626c653a2063616c6c6572206973206e6f7420746865206f776e657281525060200191505060405180910390fd5b600160008373ffffffffffffffffffffffffffffffffffffffff1673ffffffffffffffffffffffffffffffffffffffff16815260200190815260200160002060009054906101000a900460ff16611216576040517f08c379a00000000000000000000000000000000000000000000000000000000081526004018080602001828103825260138152602001807f4e6f7420612076616c696420547275737465650000000000000000000000000081525060200191505060405180910390fd5b600960009054906101000a900473ffffffffffffffffffffffffffffffffffffffff1673ffffffffffffffffffffffffffffffffffffffff1663542792b683836040518363ffffffff1660e01b8152600401808373ffffffffffffffffffffffffffffffffffffffff16815260200180602001828103825283818151815260200191508051906020019080838360005b838110156112c15780820151818401526020810190506112a6565b50505050905090810190601f1680156112ee5780820380516001836020036101000a031916815260200191505b509350505050602060405180830381600087803b15801561130e57600080fd5b505af1158015611322573d6000803e3d6000fd5b505050506040513d602081101561133857600080fd5b8101908080519060200190929190505050505050565b61135661222c565b73ffffffffffffffffffffffffffffffffffffffff16611374611766565b73ffffffffffffffffffffffffffffffffffffffff16146113fd576040517f08c379a00000000000000000000000000000000000000000000000000000000081526004018080602001828103825260208152602001807f4f776e61626c653a2063616c6c6572206973206e6f7420746865206f776e657281525060200191505060405180910390fd5b600073ffffffffffffffffffffffffffffffffffffffff1660008054906101000a900473ffffffffffffffffffffffffffffffffffffffff1673ffffffffffffffffffffffffffffffffffffffff167f8be0079c531659141344cd1fd0a4f28419497f9722a3daafe3b4186f6b6457e060405160405180910390a360008060006101000a81548173ffffffffffffffffffffffffffffffffffffffff021916908373ffffffffffffffffffffffffffffffffffffffff160217905550565b600681815481106114cb57600080fd5b906000526020600020016000915054906101000a900473ffffffffffffffffffffffffffffffffffffffff1681565b61150261222c565b73ffffffffffffffffffffffffffffffffffffffff16611520611766565b73ffffffffffffffffffffffffffffffffffffffff16146115a9576040517f08c379a00000000000000000000000000000000000000000000000000000000081526004018080602001828103825260208152602001807f4f776e61626c653a2063616c6c6572206973206e6f7420746865206f776e657281525060200191505060405180910390fd5b60005b828290508160ff16101561175b57600115156001600085858560ff168181106115d157fe5b9050602002013573ffffffffffffffffffffffffffffffffffffffff1673ffffffffffffffffffffffffffffffffffffffff1673ffffffffffffffffffffffffffffffffffffffff16815260200190815260200160002060009054906101000a900460ff1615151461174e57600180600085858560ff1681811061165157fe5b9050602002013573ffffffffffffffffffffffffffffffffffffffff1673ffffffffffffffffffffffffffffffffffffffff1673ffffffffffffffffffffffffffffffffffffffff16815260200190815260200160002060006101000a81548160ff021916908315150217905550600683838360ff168181106116d057fe5b9050602002013573ffffffffffffffffffffffffffffffffffffffff169080600181540180825580915050600190039060005260206000200160009091909190916101000a81548173ffffffffffffffffffffffffffffffffffffffff021916908373ffffffffffffffffffffffffffffffffffffffff1602179055505b80806001019150506115ac565b505050565b60055481565b60008060009054906101000a900473ffffffffffffffffffffffffffffffffffffffff16905090565b60016020528060005260406000206000915054906101000a900460ff1681565b600073ffffffffffffffffffffffffffffffffffffffff16600760029054906101000a900473ffffffffffffffffffffffffffffffffffffffff1673ffffffffffffffffffffffffffffffffffffffff161415611874576040517f08c379a000000000000000000000000000000000000000000000000000000000815260040180806020018281038252601c8152602001807f5265636f76657279206e6f742079657420696e697469616c697365640000000081525060200191505060405180910390fd5b600160003373ffffffffffffffffffffffffffffffffffffffff1673ffffffffffffffffffffffffffffffffffffffff16815260200190815260200160002060009054906101000a900460ff1680156119175750600260003373ffffffffffffffffffffffffffffffffffffffff1673ffffffffffffffffffffffffffffffffffffffff16815260200190815260200160002060009054906101000a900460ff16155b611989576040517f08c379a00000000000000000000000000000000000000000000000000000000081526004018080602001828103825260138152602001807f4e6f7420612076616c696420547275737465650000000000000000000000000081525060200191505060405180910390fd5b600960009054906101000a900473ffffffffffffffffffffffffffffffffffffffff1673ffffffffffffffffffffffffffffffffffffffff1663542792b6600760029054906101000a900473ffffffffffffffffffffffffffffffffffffffff16836040518363ffffffff1660e01b8152600401808373ffffffffffffffffffffffffffffffffffffffff16815260200180602001828103825283818151815260200191508051906020019080838360005b83811015611a56578082015181840152602081019050611a3b565b50505050905090810190601f168015611a835780820380516001836020036101000a031916815260200191505b509350505050602060405180830381600087803b158015611aa357600080fd5b505af1158015611ab7573d6000803e3d6000fd5b505050506040513d6020811015611acd57600080fd5b81019080805190602001909291905050505050565b60036020528060005260406000206000915054906101000a900460ff1681565b6000600960009054906101000a900473ffffffffffffffffffffffffffffffffffffffff16905090565b60606006805480602002602001604051908101604052809291908181526020018280548015611bb057602002820191906000526020600020905b8160009054906101000a900473ffffffffffffffffffffffffffffffffffffffff1673ffffffffffffffffffffffffffffffffffffffff1681526020019060010190808311611b66575b5050505050905090565b611bc261222c565b73ffffffffffffffffffffffffffffffffffffffff16611be0611766565b73ffffffffffffffffffffffffffffffffffffffff1614611c69576040517f08c379a00000000000000000000000000000000000000000000000000000000081526004018080602001828103825260208152602001807f4f776e61626c653a2063616c6c6572206973206e6f7420746865206f776e657281525060200191505060405180910390fd5b565b60026020528060005260406000206000915054906101000a900460ff1681565b600160003373ffffffffffffffffffffffffffffffffffffffff1673ffffffffffffffffffffffffffffffffffffffff16815260200190815260200160002060009054906101000a900460ff16611d4a576040517f08c379a00000000000000000000000000000000000000000000000000000000081526004018080602001828103825260178152602001807f53656e646572206973206e6f742061207472757374656500000000000000000081525060200191505060405180910390fd5b6001600360003373ffffffffffffffffffffffffffffffffffffffff1673ffffffffffffffffffffffffffffffffffffffff16815260200190815260200160002060006101000a81548160ff02191690831515021790555043600460003373ffffffffffffffffffffffffffffffffffffffff1673ffffffffffffffffffffffffffffffffffffffff168152602001908152602001600020819055503373ffffffffffffffffffffffffffffffffffffffff167f19a67108cdc6ba4d7a3b8dbbb34ff36b3def77fcf222e93968c6e60e41565a313073ffffffffffffffffffffffffffffffffffffffff16638da5cb5b6040518163ffffffff1660e01b815260040160206040518083038186803b158015611e6457600080fd5b505afa158015611e78573d6000803e3d6000fd5b505050506040513d6020811015611e8e57600080fd5b810190808051906020019092919050505060055443604051808473ffffffffffffffffffffffffffffffffffffffff168152602001838152602001828152602001935050505060405180910390a243600581905550565b611eed61222c565b73ffffffffffffffffffffffffffffffffffffffff16611f0b611766565b73ffffffffffffffffffffffffffffffffffffffff1614611f94576040517f08c379a00000000000000000000000000000000000000000000000000000000081526004018080602001828103825260208152602001807f4f776e61626c653a2063616c6c6572206973206e6f7420746865206f776e657281525060200191505060405180910390fd5b600073ffffffffffffffffffffffffffffffffffffffff168173ffffffffffffffffffffffffffffffffffffffff16141561201a576040517f08c379a00000000000000000000000000000000000000000000000000000000081526004018080602001828103825260268152602001806122356026913960400191505060405180910390fd5b8073ffffffffffffffffffffffffffffffffffffffff1660008054906101000a900473ffffffffffffffffffffffffffffffffffffffff1673ffffffffffffffffffffffffffffffffffffffff167f8be0079c531659141344cd1fd0a4f28419497f9722a3daafe3b4186f6b6457e060405160405180910390a3806000806101000a81548173ffffffffffffffffffffffffffffffffffffffff021916908373ffffffffffffffffffffffffffffffffffffffff16021790555050565b6120df61222c565b73ffffffffffffffffffffffffffffffffffffffff166120fd611766565b73ffffffffffffffffffffffffffffffffffffffff1614612186576040517f08c379a00000000000000000000000000000000000000000000000000000000081526004018080602001828103825260208152602001807f4f776e61626c653a2063616c6c6572206973206e6f7420746865206f776e657281525060200191505060405180910390fd5b60005b828290508160ff1610156122275760016002600085858560ff168181106121ac57fe5b9050602002013573ffffffffffffffffffffffffffffffffffffffff1673ffffffffffffffffffffffffffffffffffffffff1673ffffffffffffffffffffffffffffffffffffffff16815260200190815260200160002060006101000a81548160ff0219169083151502179055508080600101915050612189565b505050565b60003390509056fe4f776e61626c653a206e6577206f776e657220697320746865207a65726f2061646472657373a264697066735822122010d9c83540d249f9b470b987045f2174872496f619ed770bb3ceefc15ebcb17e64736f6c6343000704003360806040523480156200001157600080fd5b506040518060400160405280600881526020017f5265636f766572790000000000000000000000000000000000000000000000008152506040518060400160405280600481526020017f724e465400000000000000000000000000000000000000000000000000000000815250620000966301ffc9a760e01b6200015960201b60201c565b8160069080519060200190620000ae92919062000262565b508060079080519060200190620000c792919062000262565b50620000e06380ac58cd60e01b6200015960201b60201c565b620000f8635b5e139f60e01b6200015960201b60201c565b6200011063780e9d6360e01b6200015960201b60201c565b505032600b60006101000a81548173ffffffffffffffffffffffffffffffffffffffff021916908373ffffffffffffffffffffffffffffffffffffffff16021790555062000318565b63ffffffff60e01b817bffffffffffffffffffffffffffffffffffffffffffffffffffffffff19161415620001f6576040517f08c379a000000000000000000000000000000000000000000000000000000000815260040180806020018281038252601c8152602001807f4552433136353a20696e76616c696420696e746572666163652069640000000081525060200191505060405180910390fd5b6001600080837bffffffffffffffffffffffffffffffffffffffffffffffffffffffff19167bffffffffffffffffffffffffffffffffffffffffffffffffffffffff1916815260200190815260200160002060006101000a81548160ff02191690831515021790555050565b828054600181600116156101000203166002900490600052602060002090601f0160209004810192826200029a5760008555620002e6565b82601f10620002b557805160ff1916838001178555620002e6565b82800160010185558215620002e6579182015b82811115620002e5578251825591602001919060010190620002c8565b5b509050620002f59190620002f9565b5090565b5b8082111562000314576000816000905550600101620002fa565b5090565b612dbb80620003286000396000f3fe608060405234801561001057600080fd5b50600436106101215760003560e01c8063542792b6116100ad57806395d89b411161007157806395d89b411461070b578063a22cb4651461078e578063b88d4fde146107de578063c87b56dd146108e3578063e985e9c51461098a57610121565b8063542792b6146104505780636352211e1461053f5780636c0360eb1461059757806370a082311461061a5780638462151c1461067257610121565b806318160ddd116100f457806318160ddd146102b257806323b872dd146102d05780632f745c591461033e57806342842e0e146103a05780634f6ccce71461040e57610121565b806301ffc9a71461012657806306fdde0314610189578063081812fc1461020c578063095ea7b314610264575b600080fd5b6101716004803603602081101561013c57600080fd5b8101908080357bffffffffffffffffffffffffffffffffffffffffffffffffffffffff19169060200190929190505050610a04565b60405180821515815260200191505060405180910390f35b610191610a6b565b6040518080602001828103825283818151815260200191508051906020019080838360005b838110156101d15780820151818401526020810190506101b6565b50505050905090810190601f1680156101fe5780820380516001836020036101000a031916815260200191505b509250505060405180910390f35b6102386004803603602081101561022257600080fd5b8101908080359060200190929190505050610b0d565b604051808273ffffffffffffffffffffffffffffffffffffffff16815260200191505060405180910390f35b6102b06004803603604081101561027a57600080fd5b81019080803573ffffffffffffffffffffffffffffffffffffffff16906020019092919080359060200190929190505050610ba8565b005b6102ba610cec565b6040518082815260200191505060405180910390f35b61033c600480360360608110156102e657600080fd5b81019080803573ffffffffffffffffffffffffffffffffffffffff169060200190929190803573ffffffffffffffffffffffffffffffffffffffff16906020019092919080359060200190929190505050610cfd565b005b61038a6004803603604081101561035457600080fd5b81019080803573ffffffffffffffffffffffffffffffffffffffff16906020019092919080359060200190929190505050610d73565b6040518082815260200191505060405180910390f35b61040c600480360360608110156103b657600080fd5b81019080803573ffffffffffffffffffffffffffffffffffffffff169060200190929190803573ffffffffffffffffffffffffffffffffffffffff16906020019092919080359060200190929190505050610dce565b005b61043a6004803603602081101561042457600080fd5b8101908080359060200190929190505050610dee565b6040518082815260200191505060405180910390f35b6105296004803603604081101561046657600080fd5b81019080803573ffffffffffffffffffffffffffffffffffffffff169060200190929190803590602001906401000000008111156104a357600080fd5b8201836020820111156104b557600080fd5b803590602001918460018302840111640100000000831117156104d757600080fd5b91908080601f016020809104026020016040519081016040528093929190818152602001838380828437600081840152601f19601f820116905080830192505050505050509192919290505050610e11565b6040518082815260200191505060405180910390f35b61056b6004803603602081101561055557600080fd5b8101908080359060200190929190505050610e49565b604051808273ffffffffffffffffffffffffffffffffffffffff16815260200191505060405180910390f35b61059f610e80565b6040518080602001828103825283818151815260200191508051906020019080838360005b838110156105df5780820151818401526020810190506105c4565b50505050905090810190601f16801561060c5780820380516001836020036101000a031916815260200191505b509250505060405180910390f35b61065c6004803603602081101561063057600080fd5b81019080803573ffffffffffffffffffffffffffffffffffffffff169060200190929190505050610f22565b6040518082815260200191505060405180910390f35b6106b46004803603602081101561068857600080fd5b81019080803573ffffffffffffffffffffffffffffffffffffffff169060200190929190505050610ff7565b6040518080602001828103825283818151815260200191508051906020019060200280838360005b838110156106f75780820151818401526020810190506106dc565b505050509050019250505060405180910390f35b61071361113e565b6040518080602001828103825283818151815260200191508051906020019080838360005b83811015610753578082015181840152602081019050610738565b50505050905090810190601f1680156107805780820380516001836020036101000a031916815260200191505b509250505060405180910390f35b6107dc600480360360408110156107a457600080fd5b81019080803573ffffffffffffffffffffffffffffffffffffffff1690602001909291908035151590602001909291905050506111e0565b005b6108e1600480360360808110156107f457600080fd5b81019080803573ffffffffffffffffffffffffffffffffffffffff169060200190929190803573ffffffffffffffffffffffffffffffffffffffff169060200190929190803590602001909291908035906020019064010000000081111561085b57600080fd5b82018360208201111561086d57600080fd5b8035906020019184600183028401116401000000008311171561088f57600080fd5b91908080601f016020809104026020016040519081016040528093929190818152602001838380828437600081840152601f19601f820116905080830192505050505050509192919290505050611396565b005b61090f600480360360208110156108f957600080fd5b810190808035906020019092919050505061140e565b6040518080602001828103825283818151815260200191508051906020019080838360005b8381101561094f578082015181840152602081019050610934565b50505050905090810190601f16801561097c5780820380516001836020036101000a031916815260200191505b509250505060405180910390f35b6109ec600480360360408110156109a057600080fd5b81019080803573ffffffffffffffffffffffffffffffffffffffff169060200190929190803573ffffffffffffffffffffffffffffffffffffffff1690602001909291905050506116df565b60405180821515815260200191505060405180910390f35b6000806000837bffffffffffffffffffffffffffffffffffffffffffffffffffffffff19167bffffffffffffffffffffffffffffffffffffffffffffffffffffffff1916815260200190815260200160002060009054906101000a900460ff169050919050565b606060068054600181600116156101000203166002900480601f016020809104026020016040519081016040528092919081815260200182805460018160011615610100020316600290048015610b035780601f10610ad857610100808354040283529160200191610b03565b820191906000526020600020905b815481529060010190602001808311610ae657829003601f168201915b5050505050905090565b6000610b1882611773565b610b6d576040517f08c379a000000000000000000000000000000000000000000000000000000000815260040180806020018281038252602c815260200180612c84602c913960400191505060405180910390fd5b6004600083815260200190815260200160002060009054906101000a900473ffffffffffffffffffffffffffffffffffffffff169050919050565b6000610bb382610e49565b90508073ffffffffffffffffffffffffffffffffffffffff168373ffffffffffffffffffffffffffffffffffffffff161415610c3a576040517f08c379a0000000000000000000000000000000000000000000000000000000008152600401808060200182810382526021815260200180612d346021913960400191505060405180910390fd5b8073ffffffffffffffffffffffffffffffffffffffff16610c59611790565b73ffffffffffffffffffffffffffffffffffffffff161480610c885750610c8781610c82611790565b6116df565b5b610cdd576040517f08c379a0000000000000000000000000000000000000000000000000000000008152600401808060200182810382526038815260200180612bd76038913960400191505060405180910390fd5b610ce78383611798565b505050565b6000610cf86002611851565b905090565b610d0e610d08611790565b82611866565b610d63576040517f08c379a0000000000000000000000000000000000000000000000000000000008152600401808060200182810382526031815260200180612d556031913960400191505060405180910390fd5b610d6e83838361195a565b505050565b6000610dc682600160008673ffffffffffffffffffffffffffffffffffffffff1673ffffffffffffffffffffffffffffffffffffffff168152602001908152602001600020611b9d90919063ffffffff16565b905092915050565b610de983838360405180602001604052806000815250611396565b505050565b600080610e05836002611bb790919063ffffffff16565b50905080915050919050565b6000610e1d600a611be3565b6000610e29600a611bf9565b9050610e358482611c07565b610e3f8184611dfb565b8091505092915050565b6000610e7982604051806060016040528060298152602001612c39602991396002611e859092919063ffffffff16565b9050919050565b606060098054600181600116156101000203166002900480601f016020809104026020016040519081016040528092919081815260200182805460018160011615610100020316600290048015610f185780601f10610eed57610100808354040283529160200191610f18565b820191906000526020600020905b815481529060010190602001808311610efb57829003601f168201915b5050505050905090565b60008073ffffffffffffffffffffffffffffffffffffffff168273ffffffffffffffffffffffffffffffffffffffff161415610fa9576040517f08c379a000000000000000000000000000000000000000000000000000000000815260040180806020018281038252602a815260200180612c0f602a913960400191505060405180910390fd5b610ff0600160008473ffffffffffffffffffffffffffffffffffffffff1673ffffffffffffffffffffffffffffffffffffffff168152602001908152602001600020611ea4565b9050919050565b6060600061100483610f22565b9050600081141561105f57600067ffffffffffffffff8111801561102757600080fd5b506040519080825280602002602001820160405280156110565781602001602082028036833780820191505090505b50915050611139565b60608167ffffffffffffffff8111801561107857600080fd5b506040519080825280602002602001820160405280156110a75781602001602082028036833780820191505090505b50905060006110b4610cec565b9050600080600190505b828111611130578673ffffffffffffffffffffffffffffffffffffffff166110e582610e49565b73ffffffffffffffffffffffffffffffffffffffff161415611123578084838151811061110e57fe5b60200260200101818152505081806001019250505b80806001019150506110be565b83955050505050505b919050565b606060078054600181600116156101000203166002900480601f0160208091040260200160405190810160405280929190818152602001828054600181600116156101000203166002900480156111d65780601f106111ab576101008083540402835291602001916111d6565b820191906000526020600020905b8154815290600101906020018083116111b957829003601f168201915b5050505050905090565b6111e8611790565b73ffffffffffffffffffffffffffffffffffffffff168273ffffffffffffffffffffffffffffffffffffffff161415611289576040517f08c379a00000000000000000000000000000000000000000000000000000000081526004018080602001828103825260198152602001807f4552433732313a20617070726f766520746f2063616c6c65720000000000000081525060200191505060405180910390fd5b8060056000611296611790565b73ffffffffffffffffffffffffffffffffffffffff1673ffffffffffffffffffffffffffffffffffffffff16815260200190815260200160002060008473ffffffffffffffffffffffffffffffffffffffff1673ffffffffffffffffffffffffffffffffffffffff16815260200190815260200160002060006101000a81548160ff0219169083151502179055508173ffffffffffffffffffffffffffffffffffffffff16611343611790565b73ffffffffffffffffffffffffffffffffffffffff167f17307eab39ab6107e8899845ad3d59bd9653f200f220920489ca2b5937696c318360405180821515815260200191505060405180910390a35050565b6113a76113a1611790565b83611866565b6113fc576040517f08c379a0000000000000000000000000000000000000000000000000000000008152600401808060200182810382526031815260200180612d556031913960400191505060405180910390fd5b61140884848484611eb9565b50505050565b606061141982611773565b61146e576040517f08c379a000000000000000000000000000000000000000000000000000000000815260040180806020018281038252602f815260200180612d05602f913960400191505060405180910390fd5b6060600860008481526020019081526020016000208054600181600116156101000203166002900480601f0160208091040260200160405190810160405280929190818152602001828054600181600116156101000203166002900480156115175780601f106114ec57610100808354040283529160200191611517565b820191906000526020600020905b8154815290600101906020018083116114fa57829003601f168201915b505050505090506060611528610e80565b905060008151141561153e5781925050506116da565b60008251111561160f5780826040516020018083805190602001908083835b60208310611580578051825260208201915060208101905060208303925061155d565b6001836020036101000a03801982511681845116808217855250505050505090500182805190602001908083835b602083106115d157805182526020820191506020810190506020830392506115ae565b6001836020036101000a03801982511681845116808217855250505050505090500192505050604051602081830303815290604052925050506116da565b8061161985611f2b565b6040516020018083805190602001908083835b6020831061164f578051825260208201915060208101905060208303925061162c565b6001836020036101000a03801982511681845116808217855250505050505090500182805190602001908083835b602083106116a0578051825260208201915060208101905060208303925061167d565b6001836020036101000a03801982511681845116808217855250505050505090500192505050604051602081830303815290604052925050505b919050565b6000600560008473ffffffffffffffffffffffffffffffffffffffff1673ffffffffffffffffffffffffffffffffffffffff16815260200190815260200160002060008373ffffffffffffffffffffffffffffffffffffffff1673ffffffffffffffffffffffffffffffffffffffff16815260200190815260200160002060009054906101000a900460ff16905092915050565b600061178982600261207290919063ffffffff16565b9050919050565b600033905090565b816004600083815260200190815260200160002060006101000a81548173ffffffffffffffffffffffffffffffffffffffff021916908373ffffffffffffffffffffffffffffffffffffffff160217905550808273ffffffffffffffffffffffffffffffffffffffff1661180b83610e49565b73ffffffffffffffffffffffffffffffffffffffff167f8c5be1e5ebec7d5bd14f71427d1e84f3dd0314c0f7b2291e5b200ac8c7c3b92560405160405180910390a45050565b600061185f8260000161208c565b9050919050565b600061187182611773565b6118c6576040517f08c379a000000000000000000000000000000000000000000000000000000000815260040180806020018281038252602c815260200180612bab602c913960400191505060405180910390fd5b60006118d183610e49565b90508073ffffffffffffffffffffffffffffffffffffffff168473ffffffffffffffffffffffffffffffffffffffff16148061194057508373ffffffffffffffffffffffffffffffffffffffff1661192884610b0d565b73ffffffffffffffffffffffffffffffffffffffff16145b80611951575061195081856116df565b5b91505092915050565b8273ffffffffffffffffffffffffffffffffffffffff1661197a82610e49565b73ffffffffffffffffffffffffffffffffffffffff16146119e6576040517f08c379a0000000000000000000000000000000000000000000000000000000008152600401808060200182810382526029815260200180612cdc6029913960400191505060405180910390fd5b600073ffffffffffffffffffffffffffffffffffffffff168273ffffffffffffffffffffffffffffffffffffffff161415611a6c576040517f08c379a0000000000000000000000000000000000000000000000000000000008152600401808060200182810382526024815260200180612b616024913960400191505060405180910390fd5b611a7783838361209d565b611a82600082611798565b611ad381600160008673ffffffffffffffffffffffffffffffffffffffff1673ffffffffffffffffffffffffffffffffffffffff1681526020019081526020016000206120a290919063ffffffff16565b50611b2581600160008573ffffffffffffffffffffffffffffffffffffffff1673ffffffffffffffffffffffffffffffffffffffff1681526020019081526020016000206120bc90919063ffffffff16565b50611b3c818360026120d69092919063ffffffff16565b50808273ffffffffffffffffffffffffffffffffffffffff168473ffffffffffffffffffffffffffffffffffffffff167fddf252ad1be2c89b69c2b068fc378daa952ba7f163c4a11628f55a4df523b3ef60405160405180910390a4505050565b6000611bac836000018361210b565b60001c905092915050565b600080600080611bca866000018661218e565b915091508160001c8160001c9350935050509250929050565b6001816000016000828254019250508190555050565b600081600001549050919050565b600073ffffffffffffffffffffffffffffffffffffffff168273ffffffffffffffffffffffffffffffffffffffff161415611caa576040517f08c379a00000000000000000000000000000000000000000000000000000000081526004018080602001828103825260208152602001807f4552433732313a206d696e7420746f20746865207a65726f206164647265737381525060200191505060405180910390fd5b611cb381611773565b15611d26576040517f08c379a000000000000000000000000000000000000000000000000000000000815260040180806020018281038252601c8152602001807f4552433732313a20746f6b656e20616c7265616479206d696e7465640000000081525060200191505060405180910390fd5b611d326000838361209d565b611d8381600160008573ffffffffffffffffffffffffffffffffffffffff1673ffffffffffffffffffffffffffffffffffffffff1681526020019081526020016000206120bc90919063ffffffff16565b50611d9a818360026120d69092919063ffffffff16565b50808273ffffffffffffffffffffffffffffffffffffffff16600073ffffffffffffffffffffffffffffffffffffffff167fddf252ad1be2c89b69c2b068fc378daa952ba7f163c4a11628f55a4df523b3ef60405160405180910390a45050565b611e0482611773565b611e59576040517f08c379a000000000000000000000000000000000000000000000000000000000815260040180806020018281038252602c815260200180612cb0602c913960400191505060405180910390fd5b80600860008481526020019081526020016000209080519060200190611e80929190612a61565b505050565b6000611e98846000018460001b84612227565b60001c90509392505050565b6000611eb28260000161231d565b9050919050565b611ec484848461195a565b611ed08484848461232e565b611f25576040517f08c379a0000000000000000000000000000000000000000000000000000000008152600401808060200182810382526032815260200180612b2f6032913960400191505060405180910390fd5b50505050565b60606000821415611f73576040518060400160405280600181526020017f3000000000000000000000000000000000000000000000000000000000000000815250905061206d565b600082905060005b60008214611f9d578080600101915050600a8281611f9557fe5b049150611f7b565b60608167ffffffffffffffff81118015611fb657600080fd5b506040519080825280601f01601f191660200182016040528015611fe95781602001600182028036833780820191505090505b50905060006001830390508593505b6000841461206557600a848161200a57fe5b0660300160f81b8282806001900393508151811061202457fe5b60200101907effffffffffffffffffffffffffffffffffffffffffffffffffffffffffffff1916908160001a905350600a848161205d57fe5b049350611ff8565b819450505050505b919050565b6000612084836000018360001b612547565b905092915050565b600081600001805490509050919050565b505050565b60006120b4836000018360001b61256a565b905092915050565b60006120ce836000018360001b612652565b905092915050565b6000612102846000018460001b8473ffffffffffffffffffffffffffffffffffffffff1660001b6126c2565b90509392505050565b60008183600001805490501161216c576040517f08c379a0000000000000000000000000000000000000000000000000000000008152600401808060200182810382526022815260200180612b0d6022913960400191505060405180910390fd5b82600001828154811061217b57fe5b9060005260206000200154905092915050565b600080828460000180549050116121f0576040517f08c379a0000000000000000000000000000000000000000000000000000000008152600401808060200182810382526022815260200180612c626022913960400191505060405180910390fd5b600084600001848154811061220157fe5b906000526020600020906002020190508060000154816001015492509250509250929050565b600080846001016000858152602001908152602001600020549050600081141583906122ee576040517f08c379a00000000000000000000000000000000000000000000000000000000081526004018080602001828103825283818151815260200191508051906020019080838360005b838110156122b3578082015181840152602081019050612298565b50505050905090810190601f1680156122e05780820380516001836020036101000a031916815260200191505b509250505060405180910390fd5b5084600001600182038154811061230157fe5b9060005260206000209060020201600101549150509392505050565b600081600001805490509050919050565b600061234f8473ffffffffffffffffffffffffffffffffffffffff1661279e565b61235c576001905061253f565b60606124c663150b7a0260e01b612371611790565b888787604051602401808573ffffffffffffffffffffffffffffffffffffffff1681526020018473ffffffffffffffffffffffffffffffffffffffff16815260200183815260200180602001828103825283818151815260200191508051906020019080838360005b838110156123f55780820151818401526020810190506123da565b50505050905090810190601f1680156124225780820380516001836020036101000a031916815260200191505b5095505050505050604051602081830303815290604052907bffffffffffffffffffffffffffffffffffffffffffffffffffffffff19166020820180517bffffffffffffffffffffffffffffffffffffffffffffffffffffffff8381831617835250505050604051806060016040528060328152602001612b2f603291398773ffffffffffffffffffffffffffffffffffffffff166127b19092919063ffffffff16565b905060008180602001905160208110156124df57600080fd5b8101908080519060200190929190505050905063150b7a0260e01b7bffffffffffffffffffffffffffffffffffffffffffffffffffffffff1916817bffffffffffffffffffffffffffffffffffffffffffffffffffffffff191614925050505b949350505050565b600080836001016000848152602001908152602001600020541415905092915050565b6000808360010160008481526020019081526020016000205490506000811461264657600060018203905060006001866000018054905003905060008660000182815481106125b557fe5b90600052602060002001549050808760000184815481106125d257fe5b906000526020600020018190555060018301876001016000838152602001908152602001600020819055508660000180548061260a57fe5b6001900381819060005260206000200160009055905586600101600087815260200190815260200160002060009055600194505050505061264c565b60009150505b92915050565b600061265e83836127c9565b6126b75782600001829080600181540180825580915050600190039060005260206000200160009091909190915055826000018054905083600101600084815260200190815260200160002081905550600190506126bc565b600090505b92915050565b600080846001016000858152602001908152602001600020549050600081141561276957846000016040518060400160405280868152602001858152509080600181540180825580915050600190039060005260206000209060020201600090919091909150600082015181600001556020820151816001015550508460000180549050856001016000868152602001908152602001600020819055506001915050612797565b8285600001600183038154811061277c57fe5b90600052602060002090600202016001018190555060009150505b9392505050565b600080823b905060008111915050919050565b60606127c084846000856127ec565b90509392505050565b600080836001016000848152602001908152602001600020541415905092915050565b606082471015612847576040517f08c379a0000000000000000000000000000000000000000000000000000000008152600401808060200182810382526026815260200180612b856026913960400191505060405180910390fd5b6128508561279e565b6128c2576040517f08c379a000000000000000000000000000000000000000000000000000000000815260040180806020018281038252601d8152602001807f416464726573733a2063616c6c20746f206e6f6e2d636f6e747261637400000081525060200191505060405180910390fd5b600060608673ffffffffffffffffffffffffffffffffffffffff1685876040518082805190602001908083835b6020831061291257805182526020820191506020810190506020830392506128ef565b6001836020036101000a03801982511681845116808217855250505050505090500191505060006040518083038185875af1925050503d8060008114612974576040519150601f19603f3d011682016040523d82523d6000602084013e612979565b606091505b5091509150612989828286612995565b92505050949350505050565b606083156129a557829050612a5a565b6000835111156129b85782518084602001fd5b816040517f08c379a00000000000000000000000000000000000000000000000000000000081526004018080602001828103825283818151815260200191508051906020019080838360005b83811015612a1f578082015181840152602081019050612a04565b50505050905090810190601f168015612a4c5780820380516001836020036101000a031916815260200191505b509250505060405180910390fd5b9392505050565b828054600181600116156101000203166002900490600052602060002090601f016020900481019282612a975760008555612ade565b82601f10612ab057805160ff1916838001178555612ade565b82800160010185558215612ade579182015b82811115612add578251825591602001919060010190612ac2565b5b509050612aeb9190612aef565b5090565b5b80821115612b08576000816000905550600101612af0565b509056fe456e756d657261626c655365743a20696e646578206f7574206f6620626f756e64734552433732313a207472616e7366657220746f206e6f6e20455243373231526563656976657220696d706c656d656e7465724552433732313a207472616e7366657220746f20746865207a65726f2061646472657373416464726573733a20696e73756666696369656e742062616c616e636520666f722063616c6c4552433732313a206f70657261746f7220717565727920666f72206e6f6e6578697374656e7420746f6b656e4552433732313a20617070726f76652063616c6c6572206973206e6f74206f776e6572206e6f7220617070726f76656420666f7220616c6c4552433732313a2062616c616e636520717565727920666f7220746865207a65726f20616464726573734552433732313a206f776e657220717565727920666f72206e6f6e6578697374656e7420746f6b656e456e756d657261626c654d61703a20696e646578206f7574206f6620626f756e64734552433732313a20617070726f76656420717565727920666f72206e6f6e6578697374656e7420746f6b656e4552433732314d657461646174613a2055524920736574206f66206e6f6e6578697374656e7420746f6b656e4552433732313a207472616e73666572206f6620746f6b656e2074686174206973206e6f74206f776e4552433732314d657461646174613a2055524920717565727920666f72206e6f6e6578697374656e7420746f6b656e4552433732313a20617070726f76616c20746f2063757272656e74206f776e65724552433732313a207472616e736665722063616c6c6572206973206e6f74206f776e6572206e6f7220617070726f766564a2646970667358221220c53f9e85aa00bb2c3e1030cfb9700e545f75dafdf82a8c908a36da7ace7d672b64736f6c634300070400334f776e61626c653a206e6577206f776e657220697320746865207a65726f2061646472657373a2646970667358221220afd93e2063274cdbb81a18cbee27c029995002d64d0aae7806afb48a2cc3b31d64736f6c63430007040033",
  "immutableReferences": {},
  "source": "// SPDX-License-Identifier: UNLICENSED\r\npragma solidity ^0.7.4;\r\n\r\nimport \"./Recovery.sol\";\r\n\r\n/**\r\n * TODO: Remember to set this contract as ownable?\r\n */\r\ncontract ShardManager {\r\n    // An enum to list what state the recovery of a token is in\r\n    // enum RecoveryState {Normal, StandardRecovery, AfterDeath}\r\n\r\n    // This struct keeps track of who owns what contracts and the location of their recovery contracts\r\n    // struct RecoveryContracts {\r\n    //     address recoveryContractAddress;\r\n    //     RecoveryState recoveryState;\r\n    // }\r\n\r\n    event ShardRecoveryStep(\r\n        address indexed ownerAddress,\r\n        address contractAddress\r\n    );\r\n\r\n    // Store metadata about who ovms a contract address and the state of the contract -> is it in recovery or is the owner said to have died\r\n    mapping(address => address) public contractMappings;\r\n\r\n    /** Create shard contract\r\n     *\r\n     * Any user wishing to initiate on chain recovery can interact with this contract in order to trigger an\r\n     * on chain recovery mechanism\r\n     */\r\n    function createRecoveryContract(\r\n        address _recoveryContractOwner,\r\n        uint256 _threshold\r\n    ) public {\r\n        // create the new recovery contract\r\n        Recovery userRecoveryContract =\r\n            new Recovery(\r\n                address(this),\r\n                _recoveryContractOwner,\r\n                uint8(_threshold)\r\n            );\r\n\r\n        // update the contract mappings struct\r\n        contractMappings[_recoveryContractOwner] = address(\r\n            userRecoveryContract\r\n        );\r\n        // contractMappings[_recoveryContractOwner].recoveryState = RecoveryState\r\n        // .Normal;\r\n\r\n        emit ShardRecoveryStep(\r\n            address(_recoveryContractOwner),\r\n            address(userRecoveryContract)\r\n        );\r\n    }\r\n\r\n    //TODO: Modify so that the user can let the others know if the before death / after death protocol is to be used\r\n    function updateRecoveryState(\r\n        address _contractOwner,\r\n        address _sender,\r\n        uint256 _step\r\n    ) public {\r\n        //TODO: Come back to fix user access on this\r\n        // bool sentFromContract =\r\n        //     address(contractMappings[_contractOwner].recoveryContract) ==\r\n        //         msg.sender;\r\n        // bool senderIsTrusted =\r\n        //     contractMappings[_contractOwner].recoveryContract.shardHolders(\r\n        //         _sender\r\n        //     );\r\n\r\n        //TODO: fix this here\r\n        bool sentFromContract = true;\r\n        bool senderIsTrusted = true;\r\n        require(sentFromContract && senderIsTrusted, \"Sender not trustee\");\r\n\r\n        // contractMappings[_contractOwner].recoveryState = RecoveryState\r\n        //     .StandardRecovery;\r\n\r\n        // emit an evnt notifying that the current step has been updated\r\n        emit ShardRecoveryStep(\r\n            address(_contractOwner),\r\n            address(contractMappings[_contractOwner])\r\n        );\r\n    }\r\n\r\n    /**\r\n        @dev Is called by the child recovery contract to update the owner of a recovery contract\r\n     */\r\n    function setNewContractOwner(\r\n        address _newOwner,\r\n        address _currentOwner,\r\n        address _childContractAddr\r\n    ) public {\r\n        require(\r\n            msg.sender == contractMappings[_currentOwner] &&\r\n                contractMappings[_currentOwner] == address(_childContractAddr),\r\n            \"Sender not Contract\"\r\n        );\r\n\r\n        contractMappings[_newOwner] = _childContractAddr;\r\n        // contractMappings[_newOwner].recoveryState = RecoveryState.Normal;\r\n    }\r\n}\r\n",
  "sourcePath": "C:/Users/schee/Documents/Projects/fresh_fyp/contracts/ShardManager.sol",
  "compiler": {
    "name": "solc",
    "version": "0.7.4+commit.3f05b770.Emscripten.clang"
  },
  "schemaVersion": "3.3.4",
  "updatedAt": "2021-04-15T16:25:27.105Z",
  "networkType": "ethereum",
  "devdoc": {
    "kind": "dev",
    "methods": {
      "setNewContractOwner(address,address,address)": {
        "details": "Is called by the child recovery contract to update the owner of a recovery contract"
      }
    },
    "version": 1
  },
  "userdoc": {
    "kind": "user",
    "methods": {
      "createRecoveryContract(address,uint256)": {
        "notice": "Create shard contract Any user wishing to initiate on chain recovery can interact with this contract in order to trigger an on chain recovery mechanism"
      }
    },
    "notice": "TODO: Remember to set this contract as ownable?",
    "version": 1
  }
}